{
  "_format": "hh-sol-artifact-1",
  "contractName": "EvolvingTitan",
  "sourceName": "contracts/EvolvingTitan.sol",
  "abi": [
    {
      "inputs": [],
      "stateMutability": "nonpayable",
      "type": "constructor"
    },
    {
      "inputs": [
        {
          "internalType": "address",
          "name": "_caller",
          "type": "address"
        }
      ],
      "name": "AddressAlreadyClaimed",
      "type": "error"
    },
    {
      "inputs": [
        {
          "internalType": "string",
          "name": "_salt",
          "type": "string"
        },
        {
          "internalType": "bytes",
          "name": "_signature",
          "type": "bytes"
        },
        {
          "internalType": "address",
          "name": "_caller",
          "type": "address"
        }
      ],
      "name": "InvalidSignature",
      "type": "error"
    },
    {
      "inputs": [
        {
          "internalType": "address",
          "name": "_caller",
          "type": "address"
        }
      ],
      "name": "PermissionDeniedCallerIsNotASigner",
      "type": "error"
    },
    {
      "inputs": [
        {
          "internalType": "address",
          "name": "_caller",
          "type": "address"
        }
      ],
      "name": "PermissionDeniedCallerIsNotATransferrer",
      "type": "error"
    },
    {
      "inputs": [
        {
          "internalType": "address",
          "name": "_caller",
          "type": "address"
        }
      ],
      "name": "PermissionDeniedCallerIsNotAnAdmin",
      "type": "error"
    },
    {
      "inputs": [
        {
          "internalType": "uint256",
          "name": "_tokenId",
          "type": "uint256"
        }
      ],
      "name": "TokenIDDoesNotExist",
      "type": "error"
    },
    {
      "anonymous": false,
      "inputs": [
        {
          "indexed": true,
          "internalType": "address",
          "name": "owner",
          "type": "address"
        },
        {
          "indexed": true,
          "internalType": "address",
          "name": "approved",
          "type": "address"
        },
        {
          "indexed": true,
          "internalType": "uint256",
          "name": "tokenId",
          "type": "uint256"
        }
      ],
      "name": "Approval",
      "type": "event"
    },
    {
      "anonymous": false,
      "inputs": [
        {
          "indexed": true,
          "internalType": "address",
          "name": "owner",
          "type": "address"
        },
        {
          "indexed": true,
          "internalType": "address",
          "name": "operator",
          "type": "address"
        },
        {
          "indexed": false,
          "internalType": "bool",
          "name": "approved",
          "type": "bool"
        }
      ],
      "name": "ApprovalForAll",
      "type": "event"
    },
    {
      "anonymous": false,
      "inputs": [
        {
          "indexed": true,
          "internalType": "address",
          "name": "previousOwner",
          "type": "address"
        },
        {
          "indexed": true,
          "internalType": "address",
          "name": "newOwner",
          "type": "address"
        }
      ],
      "name": "OwnershipTransferred",
      "type": "event"
    },
    {
      "anonymous": false,
      "inputs": [
        {
          "indexed": true,
          "internalType": "bytes32",
          "name": "role",
          "type": "bytes32"
        },
        {
          "indexed": true,
          "internalType": "bytes32",
          "name": "previousAdminRole",
          "type": "bytes32"
        },
        {
          "indexed": true,
          "internalType": "bytes32",
          "name": "newAdminRole",
          "type": "bytes32"
        }
      ],
      "name": "RoleAdminChanged",
      "type": "event"
    },
    {
      "anonymous": false,
      "inputs": [
        {
          "indexed": true,
          "internalType": "bytes32",
          "name": "role",
          "type": "bytes32"
        },
        {
          "indexed": true,
          "internalType": "address",
          "name": "account",
          "type": "address"
        },
        {
          "indexed": true,
          "internalType": "address",
          "name": "sender",
          "type": "address"
        }
      ],
      "name": "RoleGranted",
      "type": "event"
    },
    {
      "anonymous": false,
      "inputs": [
        {
          "indexed": true,
          "internalType": "bytes32",
          "name": "role",
          "type": "bytes32"
        },
        {
          "indexed": true,
          "internalType": "address",
          "name": "account",
          "type": "address"
        },
        {
          "indexed": true,
          "internalType": "address",
          "name": "sender",
          "type": "address"
        }
      ],
      "name": "RoleRevoked",
      "type": "event"
    },
    {
      "anonymous": false,
      "inputs": [
        {
          "indexed": false,
          "internalType": "address",
          "name": "newSigner",
          "type": "address"
        }
      ],
      "name": "SignerUpdated",
      "type": "event"
    },
    {
      "anonymous": false,
      "inputs": [
        {
          "indexed": true,
          "internalType": "address",
          "name": "from",
          "type": "address"
        },
        {
          "indexed": true,
          "internalType": "address",
          "name": "to",
          "type": "address"
        },
        {
          "indexed": true,
          "internalType": "uint256",
          "name": "tokenId",
          "type": "uint256"
        }
      ],
      "name": "Transfer",
      "type": "event"
    },
    {
      "anonymous": false,
      "inputs": [
        {
          "indexed": false,
          "internalType": "uint256",
          "name": "tokenID",
          "type": "uint256"
        },
        {
          "indexed": false,
          "internalType": "address",
          "name": "minterAddress",
          "type": "address"
        }
      ],
      "name": "tokenMinted",
      "type": "event"
    },
    {
      "inputs": [],
      "name": "DEFAULT_ADMIN_ROLE",
      "outputs": [
        {
          "internalType": "bytes32",
          "name": "",
          "type": "bytes32"
        }
      ],
      "stateMutability": "view",
      "type": "function"
    },
    {
      "inputs": [],
      "name": "SIGNER_ROLE",
      "outputs": [
        {
          "internalType": "bytes32",
          "name": "",
          "type": "bytes32"
        }
      ],
      "stateMutability": "view",
      "type": "function"
    },
    {
      "inputs": [],
      "name": "TRANSFER_ROLE",
      "outputs": [
        {
          "internalType": "bytes32",
          "name": "",
          "type": "bytes32"
        }
      ],
      "stateMutability": "view",
      "type": "function"
    },
    {
      "inputs": [
        {
          "internalType": "address",
          "name": "to",
          "type": "address"
        },
        {
          "internalType": "uint256",
          "name": "tokenId",
          "type": "uint256"
        }
      ],
      "name": "approve",
      "outputs": [],
      "stateMutability": "nonpayable",
      "type": "function"
    },
    {
      "inputs": [
        {
          "internalType": "address",
          "name": "owner",
          "type": "address"
        }
      ],
      "name": "balanceOf",
      "outputs": [
        {
          "internalType": "uint256",
          "name": "",
          "type": "uint256"
        }
      ],
      "stateMutability": "view",
      "type": "function"
    },
    {
      "inputs": [
        {
          "internalType": "string",
          "name": "_salt",
          "type": "string"
        },
        {
          "internalType": "bytes",
          "name": "_signature",
          "type": "bytes"
        }
      ],
      "name": "claim",
      "outputs": [],
      "stateMutability": "nonpayable",
      "type": "function"
    },
    {
      "inputs": [
        {
          "internalType": "address",
          "name": "",
          "type": "address"
        }
      ],
      "name": "claimedNFT",
      "outputs": [
        {
          "internalType": "bool",
          "name": "",
          "type": "bool"
        }
      ],
      "stateMutability": "view",
      "type": "function"
    },
    {
      "inputs": [
        {
          "internalType": "uint256",
          "name": "tokenId",
          "type": "uint256"
        }
      ],
      "name": "getApproved",
      "outputs": [
        {
          "internalType": "address",
          "name": "",
          "type": "address"
        }
      ],
      "stateMutability": "view",
      "type": "function"
    },
    {
      "inputs": [
        {
          "internalType": "bytes32",
          "name": "role",
          "type": "bytes32"
        }
      ],
      "name": "getRoleAdmin",
      "outputs": [
        {
          "internalType": "bytes32",
          "name": "",
          "type": "bytes32"
        }
      ],
      "stateMutability": "view",
      "type": "function"
    },
    {
      "inputs": [
        {
          "internalType": "bytes32",
          "name": "role",
          "type": "bytes32"
        },
        {
          "internalType": "uint256",
          "name": "index",
          "type": "uint256"
        }
      ],
      "name": "getRoleMember",
      "outputs": [
        {
          "internalType": "address",
          "name": "",
          "type": "address"
        }
      ],
      "stateMutability": "view",
      "type": "function"
    },
    {
      "inputs": [
        {
          "internalType": "bytes32",
          "name": "role",
          "type": "bytes32"
        }
      ],
      "name": "getRoleMemberCount",
      "outputs": [
        {
          "internalType": "uint256",
          "name": "",
          "type": "uint256"
        }
      ],
      "stateMutability": "view",
      "type": "function"
    },
    {
      "inputs": [
        {
          "internalType": "bytes32",
          "name": "role",
          "type": "bytes32"
        },
        {
          "internalType": "address",
          "name": "account",
          "type": "address"
        }
      ],
      "name": "grantRole",
      "outputs": [],
      "stateMutability": "nonpayable",
      "type": "function"
    },
    {
      "inputs": [
        {
          "internalType": "bytes32",
          "name": "role",
          "type": "bytes32"
        },
        {
          "internalType": "address",
          "name": "account",
          "type": "address"
        }
      ],
      "name": "hasRole",
      "outputs": [
        {
          "internalType": "bool",
          "name": "",
          "type": "bool"
        }
      ],
      "stateMutability": "view",
      "type": "function"
    },
    {
      "inputs": [
        {
          "internalType": "address",
          "name": "owner",
          "type": "address"
        },
        {
          "internalType": "address",
          "name": "operator",
          "type": "address"
        }
      ],
      "name": "isApprovedForAll",
      "outputs": [
        {
          "internalType": "bool",
          "name": "",
          "type": "bool"
        }
      ],
      "stateMutability": "view",
      "type": "function"
    },
    {
      "inputs": [],
      "name": "name",
      "outputs": [
        {
          "internalType": "string",
          "name": "",
          "type": "string"
        }
      ],
      "stateMutability": "view",
      "type": "function"
    },
    {
      "inputs": [],
      "name": "owner",
      "outputs": [
        {
          "internalType": "address",
          "name": "",
          "type": "address"
        }
      ],
      "stateMutability": "view",
      "type": "function"
    },
    {
      "inputs": [
        {
          "internalType": "uint256",
          "name": "tokenId",
          "type": "uint256"
        }
      ],
      "name": "ownerOf",
      "outputs": [
        {
          "internalType": "address",
          "name": "",
          "type": "address"
        }
      ],
      "stateMutability": "view",
      "type": "function"
    },
    {
      "inputs": [],
      "name": "renounceOwnership",
      "outputs": [],
      "stateMutability": "nonpayable",
      "type": "function"
    },
    {
      "inputs": [
        {
          "internalType": "bytes32",
          "name": "role",
          "type": "bytes32"
        },
        {
          "internalType": "address",
          "name": "account",
          "type": "address"
        }
      ],
      "name": "renounceRole",
      "outputs": [],
      "stateMutability": "nonpayable",
      "type": "function"
    },
    {
      "inputs": [
        {
          "internalType": "bytes32",
          "name": "role",
          "type": "bytes32"
        },
        {
          "internalType": "address",
          "name": "account",
          "type": "address"
        }
      ],
      "name": "revokeRole",
      "outputs": [],
      "stateMutability": "nonpayable",
      "type": "function"
    },
    {
      "inputs": [
        {
          "internalType": "address",
          "name": "from",
          "type": "address"
        },
        {
          "internalType": "address",
          "name": "to",
          "type": "address"
        },
        {
          "internalType": "uint256",
          "name": "tokenId",
          "type": "uint256"
        }
      ],
      "name": "safeTransferFrom",
      "outputs": [],
      "stateMutability": "nonpayable",
      "type": "function"
    },
    {
      "inputs": [
        {
          "internalType": "address",
          "name": "from",
          "type": "address"
        },
        {
          "internalType": "address",
          "name": "to",
          "type": "address"
        },
        {
          "internalType": "uint256",
          "name": "tokenId",
          "type": "uint256"
        },
        {
          "internalType": "bytes",
          "name": "data",
          "type": "bytes"
        }
      ],
      "name": "safeTransferFrom",
      "outputs": [],
      "stateMutability": "nonpayable",
      "type": "function"
    },
    {
      "inputs": [
        {
          "internalType": "address",
          "name": "operator",
          "type": "address"
        },
        {
          "internalType": "bool",
          "name": "approved",
          "type": "bool"
        }
      ],
      "name": "setApprovalForAll",
      "outputs": [],
      "stateMutability": "nonpayable",
      "type": "function"
    },
    {
      "inputs": [
        {
          "internalType": "string",
          "name": "_newURI",
          "type": "string"
        }
      ],
      "name": "setBaseURI",
      "outputs": [],
      "stateMutability": "nonpayable",
      "type": "function"
    },
    {
      "inputs": [
        {
          "internalType": "address",
          "name": "_newSigner",
          "type": "address"
        }
      ],
      "name": "setSigner",
      "outputs": [],
      "stateMutability": "nonpayable",
      "type": "function"
    },
    {
      "inputs": [
        {
          "internalType": "bytes4",
          "name": "interfaceId",
          "type": "bytes4"
        }
      ],
      "name": "supportsInterface",
      "outputs": [
        {
          "internalType": "bool",
          "name": "",
          "type": "bool"
        }
      ],
      "stateMutability": "view",
      "type": "function"
    },
    {
      "inputs": [],
      "name": "symbol",
      "outputs": [
        {
          "internalType": "string",
          "name": "",
          "type": "string"
        }
      ],
      "stateMutability": "view",
      "type": "function"
    },
    {
      "inputs": [
        {
          "internalType": "uint256",
          "name": "index",
          "type": "uint256"
        }
      ],
      "name": "tokenByIndex",
      "outputs": [
        {
          "internalType": "uint256",
          "name": "",
          "type": "uint256"
        }
      ],
      "stateMutability": "view",
      "type": "function"
    },
    {
      "inputs": [
        {
          "internalType": "address",
          "name": "owner",
          "type": "address"
        },
        {
          "internalType": "uint256",
          "name": "index",
          "type": "uint256"
        }
      ],
      "name": "tokenOfOwnerByIndex",
      "outputs": [
        {
          "internalType": "uint256",
          "name": "",
          "type": "uint256"
        }
      ],
      "stateMutability": "view",
      "type": "function"
    },
    {
      "inputs": [
        {
          "internalType": "uint256",
          "name": "_tokenId",
          "type": "uint256"
        }
      ],
      "name": "tokenURI",
      "outputs": [
        {
          "internalType": "string",
          "name": "",
          "type": "string"
        }
      ],
      "stateMutability": "view",
      "type": "function"
    },
    {
      "inputs": [],
      "name": "totalSupply",
      "outputs": [
        {
          "internalType": "uint256",
          "name": "",
          "type": "uint256"
        }
      ],
      "stateMutability": "view",
      "type": "function"
    },
    {
      "inputs": [
        {
          "internalType": "address",
          "name": "from",
          "type": "address"
        },
        {
          "internalType": "address",
          "name": "to",
          "type": "address"
        },
        {
          "internalType": "uint256",
          "name": "tokenId",
          "type": "uint256"
        }
      ],
      "name": "transferFrom",
      "outputs": [],
      "stateMutability": "nonpayable",
      "type": "function"
    },
    {
      "inputs": [
        {
          "internalType": "address",
          "name": "newOwner",
          "type": "address"
        }
      ],
      "name": "transferOwnership",
      "outputs": [],
      "stateMutability": "nonpayable",
      "type": "function"
    },
    {
      "inputs": [
        {
          "internalType": "string",
          "name": "_salt",
          "type": "string"
        },
        {
          "internalType": "bytes",
          "name": "_token",
          "type": "bytes"
        },
        {
          "internalType": "address",
          "name": "_address",
          "type": "address"
        },
        {
          "internalType": "uint256",
          "name": "_tokenId",
          "type": "uint256"
        }
      ],
      "name": "verifyTokenForAddress",
      "outputs": [
        {
          "internalType": "bool",
          "name": "",
          "type": "bool"
        }
      ],
      "stateMutability": "view",
      "type": "function"
    },
    {
      "inputs": [
        {
          "internalType": "string",
          "name": "_salt",
          "type": "string"
        },
        {
          "internalType": "bytes",
          "name": "_token",
          "type": "bytes"
        },
        {
          "internalType": "address",
          "name": "_address",
          "type": "address"
        }
      ],
      "name": "verifyTokenForAddress",
      "outputs": [
        {
          "internalType": "bool",
          "name": "",
          "type": "bool"
        }
      ],
      "stateMutability": "view",
      "type": "function"
    }
  ],
  "bytecode": "0x60806040523480156200001157600080fd5b50604080518082018252601481527f4b4f494f532045766f6c76696e6720546974616e00000000000000000000000060208083019182528351808501909452600684526532aa24aa20a760d11b9084015281519192916200007591600291620002ce565b5080516200008b906003906020840190620002ce565b505050620000a8620000a26200011360201b60201c565b62000117565b620000b560003362000169565b620000e17fe2f4eaae4a9751e85a3e4a7b9587827a877f29914755229b07a7b2da98285f703362000169565b6200010d7f8502233096d909befbda0999bb8ea2f3a6be3c138b9fbf003752a4c8bce86f6c3362000169565b620003b1565b3390565b600c80546001600160a01b038381166001600160a01b0319831681179093556040519116919082907f8be0079c531659141344cd1fd0a4f28419497f9722a3daafe3b4186f6b6457e090600090a35050565b62000175828262000179565b5050565b620001908282620001bc60201b62000e4c1760201c565b6000828152600160209081526040909120620001b791839062000ed06200025c821b17901c565b505050565b6000828152602081815260408083206001600160a01b038516845290915290205460ff1662000175576000828152602081815260408083206001600160a01b03851684529091529020805460ff19166001179055620002183390565b6001600160a01b0316816001600160a01b0316837f2f8788117e7eff1d82e926ec794901d17c78024a50270940304540a733656f0d60405160405180910390a45050565b600062000273836001600160a01b0384166200027c565b90505b92915050565b6000818152600183016020526040812054620002c55750815460018181018455600084815260208082209093018490558454848252828601909352604090209190915562000276565b50600062000276565b828054620002dc9062000374565b90600052602060002090601f0160209004810192826200030057600085556200034b565b82601f106200031b57805160ff19168380011785556200034b565b828001600101855582156200034b579182015b828111156200034b5782518255916020019190600101906200032e565b50620003599291506200035d565b5090565b5b808211156200035957600081556001016200035e565b600181811c908216806200038957607f821691505b60208210811415620003ab57634e487b7160e01b600052602260045260246000fd5b50919050565b612d5180620003c16000396000f3fe608060405234801561001057600080fd5b50600436106102115760003560e01c806365f9804611610125578063a217fddf116100ad578063c87b56dd1161007c578063c87b56dd146104a5578063ca15c873146104b8578063d547741f146104cb578063e985e9c5146104de578063f2fde38b1461051a57600080fd5b8063a217fddf14610464578063a22cb4651461046c578063a34932db1461047f578063b88d4fde1461049257600080fd5b80638da5cb5b116100f45780638da5cb5b146103fe5780639010d07c1461040f57806391d148541461042257806395d89b4114610435578063a1ebf35d1461043d57600080fd5b806365f98046146103ad5780636c19e783146103d057806370a08231146103e3578063715018a6146103f657600080fd5b8063248a9ca3116101a857806342842e0e1161017757806342842e0e1461034e5780634f6ccce71461036157806355f804b314610374578063614c972b146103875780636352211e1461039a57600080fd5b8063248a9ca3146102f25780632f2ff15d146103155780632f745c591461032857806336568abe1461033b57600080fd5b80630bfc803d116101e45780630bfc803d1461029357806318160ddd146102a6578063206b60f9146102b857806323b872dd146102df57600080fd5b806301ffc9a71461021657806306fdde031461023e578063081812fc14610253578063095ea7b31461027e575b600080fd5b61022961022436600461246c565b61052d565b60405190151581526020015b60405180910390f35b61024661053e565b60405161023591906124e1565b6102666102613660046124f4565b6105d0565b6040516001600160a01b039091168152602001610235565b61029161028c366004612529565b6105f7565b005b6102916102a1366004612595565b610712565b600a545b604051908152602001610235565b6102aa7f8502233096d909befbda0999bb8ea2f3a6be3c138b9fbf003752a4c8bce86f6c81565b6102916102ed366004612601565b6107fe565b6102aa6103003660046124f4565b60009081526020819052604090206001015490565b61029161032336600461263d565b61082f565b6102aa610336366004612529565b610854565b61029161034936600461263d565b6108ea565b61029161035c366004612601565b610968565b6102aa61036f3660046124f4565b610983565b610291610382366004612669565b610a16565b6102296103953660046126ab565b610a4c565b6102666103a83660046124f4565b610aa4565b6102296103bb366004612734565b600e6020526000908152604090205460ff1681565b6102916103de366004612734565b610b04565b6102aa6103f1366004612734565b610b59565b610291610bdf565b600c546001600160a01b0316610266565b61026661041d36600461274f565b610bf3565b61022961043036600461263d565b610c12565b610246610c3b565b6102aa7fe2f4eaae4a9751e85a3e4a7b9587827a877f29914755229b07a7b2da98285f7081565b6102aa600081565b61029161047a366004612771565b610c4a565b61022961048d3660046127ad565b610c55565b6102916104a0366004612844565b610cab565b6102466104b33660046124f4565b610ce3565b6102aa6104c63660046124f4565b610d9a565b6102916104d936600461263d565b610db1565b6102296104ec366004612920565b6001600160a01b03918216600090815260076020908152604080832093909416825291909152205460ff1690565b610291610528366004612734565b610dd6565b600061053882610ee5565b92915050565b60606002805461054d9061294a565b80601f01602080910402602001604051908101604052809291908181526020018280546105799061294a565b80156105c65780601f1061059b576101008083540402835291602001916105c6565b820191906000526020600020905b8154815290600101906020018083116105a957829003601f168201915b5050505050905090565b60006105db82610f0a565b506000908152600660205260409020546001600160a01b031690565b600061060282610aa4565b9050806001600160a01b0316836001600160a01b031614156106755760405162461bcd60e51b815260206004820152602160248201527f4552433732313a20617070726f76616c20746f2063757272656e74206f776e656044820152603960f91b60648201526084015b60405180910390fd5b336001600160a01b0382161480610691575061069181336104ec565b6107035760405162461bcd60e51b815260206004820152603e60248201527f4552433732313a20617070726f76652063616c6c6572206973206e6f7420746f60448201527f6b656e206f776e6572206e6f7220617070726f76656420666f7220616c6c0000606482015260840161066c565b61070d8383610f69565b505050565b600061071d600a5490565b9050600061072c82600161299b565b336000908152600e602052604090205490915060ff16156107625760405163096238d760e31b815233600482015260240161066c565b61076f8686868633610c55565b6107965785858585336040516320a4673b60e11b815260040161066c9594939291906129dc565b6107a03382610fd7565b336000818152600e6020908152604091829020805460ff1916600117905581518481529081019290925280517f55d785d3e2a7effd275e725eb0fd1a1457366d1d3709f9bb61cd2d83913fdb839281900390910190a1505050505050565b6108083382610ff1565b6108245760405162461bcd60e51b815260040161066c90612a1e565b61070d838383611070565b60008281526020819052604090206001015461084a81611217565b61070d8383611221565b600061085f83610b59565b82106108c15760405162461bcd60e51b815260206004820152602b60248201527f455243373231456e756d657261626c653a206f776e657220696e646578206f7560448201526a74206f6620626f756e647360a81b606482015260840161066c565b506001600160a01b03919091166000908152600860209081526040808320938352929052205490565b6001600160a01b038116331461095a5760405162461bcd60e51b815260206004820152602f60248201527f416363657373436f6e74726f6c3a2063616e206f6e6c792072656e6f756e636560448201526e103937b632b9903337b91039b2b63360891b606482015260840161066c565b6109648282611243565b5050565b61070d83838360405180602001604052806000815250610cab565b600061098e600a5490565b82106109f15760405162461bcd60e51b815260206004820152602c60248201527f455243373231456e756d657261626c653a20676c6f62616c20696e646578206f60448201526b7574206f6620626f756e647360a01b606482015260840161066c565b600a8281548110610a0457610a04612a6c565b90600052602060002001549050919050565b610a21600033610c12565b610a4057604051637baec9b560e01b815233600482015260240161066c565b61070d600f83836123bd565b6000610a99610a5d88888587611265565b86868080601f0160208091040260200160405190810160405280939291908181526020018383808284376000920191909152506112a092505050565b979650505050505050565b6000818152600460205260408120546001600160a01b0316806105385760405162461bcd60e51b8152602060048201526018602482015277115490cdcc8c4e881a5b9d985b1a59081d1bdad95b88125160421b604482015260640161066c565b610b2e7fe2f4eaae4a9751e85a3e4a7b9587827a877f29914755229b07a7b2da98285f7033610c12565b610b4d57604051636de9f12160e01b815233600482015260240161066c565b610b56816112ca565b50565b60006001600160a01b038216610bc35760405162461bcd60e51b815260206004820152602960248201527f4552433732313a2061646472657373207a65726f206973206e6f7420612076616044820152683634b21037bbb732b960b91b606482015260840161066c565b506001600160a01b031660009081526005602052604090205490565b610be761131e565b610bf16000611378565b565b6000828152600160205260408120610c0b90836113ca565b9392505050565b6000918252602082815260408084206001600160a01b0393909316845291905290205460ff1690565b60606003805461054d9061294a565b6109643383836113d6565b6000610ca1610c658787856114a5565b85858080601f0160208091040260200160405190810160405280939291908181526020018383808284376000920191909152506112a092505050565b9695505050505050565b610cb53383610ff1565b610cd15760405162461bcd60e51b815260040161066c90612a1e565b610cdd848484846114dd565b50505050565b6000818152600460205260409020546060906001600160a01b0316610d1e5760405163174ae5a960e21b81526004810183905260240161066c565b6000610d28611510565b604080518082019091526005815264173539b7b760d91b6020820152815191925090610d6557505060408051602081019091526000815292915050565b81610d6f8561151f565b82604051602001610d8293929190612a82565b60405160208183030381529060405292505050919050565b60008181526001602052604081206105389061161d565b600082815260208190526040902060010154610dcc81611217565b61070d8383611243565b610dde61131e565b6001600160a01b038116610e435760405162461bcd60e51b815260206004820152602660248201527f4f776e61626c653a206e6577206f776e657220697320746865207a65726f206160448201526564647265737360d01b606482015260840161066c565b610b5681611378565b610e568282610c12565b610964576000828152602081815260408083206001600160a01b03851684529091529020805460ff19166001179055610e8c3390565b6001600160a01b0316816001600160a01b0316837f2f8788117e7eff1d82e926ec794901d17c78024a50270940304540a733656f0d60405160405180910390a45050565b6000610c0b836001600160a01b038416611627565b60006001600160e01b0319821663780e9d6360e01b1480610538575061053882611676565b6000818152600460205260409020546001600160a01b0316610b565760405162461bcd60e51b8152602060048201526018602482015277115490cdcc8c4e881a5b9d985b1a59081d1bdad95b88125160421b604482015260640161066c565b600081815260066020526040902080546001600160a01b0319166001600160a01b0384169081179091558190610f9e82610aa4565b6001600160a01b03167f8c5be1e5ebec7d5bd14f71427d1e84f3dd0314c0f7b2291e5b200ac8c7c3b92560405160405180910390a45050565b6109648282604051806020016040528060008152506116b6565b600080610ffd83610aa4565b9050806001600160a01b0316846001600160a01b0316148061104457506001600160a01b0380821660009081526007602090815260408083209388168352929052205460ff165b806110685750836001600160a01b031661105d846105d0565b6001600160a01b0316145b949350505050565b826001600160a01b031661108382610aa4565b6001600160a01b0316146110e75760405162461bcd60e51b815260206004820152602560248201527f4552433732313a207472616e736665722066726f6d20696e636f72726563742060448201526437bbb732b960d91b606482015260840161066c565b6001600160a01b0382166111495760405162461bcd60e51b8152602060048201526024808201527f4552433732313a207472616e7366657220746f20746865207a65726f206164646044820152637265737360e01b606482015260840161066c565b6111548383836116e9565b61115f600082610f69565b6001600160a01b0383166000908152600560205260408120805460019290611188908490612ac5565b90915550506001600160a01b03821660009081526005602052604081208054600192906111b690849061299b565b909155505060008181526004602052604080822080546001600160a01b0319166001600160a01b0386811691821790925591518493918716917fddf252ad1be2c89b69c2b068fc378daa952ba7f163c4a11628f55a4df523b3ef91a4505050565b610b568133611754565b61122b8282610e4c565b600082815260016020526040902061070d9082610ed0565b61124d82826117b8565b600082815260016020526040902061070d908261181d565b60008484308486604051602001611280959493929190612adc565b604051602081830303815290604052805190602001209050949350505050565b600d546000906001600160a01b03166112b98484611832565b6001600160a01b0316149392505050565b600d80546001600160a01b0319166001600160a01b0383169081179091556040519081527f5553331329228fbd4123164423717a4a7539f6dfa1c3279a923b98fd681a6c739060200160405180910390a150565b600c546001600160a01b03163314610bf15760405162461bcd60e51b815260206004820181905260248201527f4f776e61626c653a2063616c6c6572206973206e6f7420746865206f776e6572604482015260640161066c565b600c80546001600160a01b038381166001600160a01b0319831681179093556040519116919082907f8be0079c531659141344cd1fd0a4f28419497f9722a3daafe3b4186f6b6457e090600090a35050565b6000610c0b8383611895565b816001600160a01b0316836001600160a01b031614156114385760405162461bcd60e51b815260206004820152601960248201527f4552433732313a20617070726f766520746f2063616c6c657200000000000000604482015260640161066c565b6001600160a01b03838116600081815260076020908152604080832094871680845294825291829020805460ff191686151590811790915591519182527f17307eab39ab6107e8899845ad3d59bd9653f200f220920489ca2b5937696c31910160405180910390a3505050565b6000838330846040516020016114be9493929190612b14565b6040516020818303038152906040528051906020012090509392505050565b6114e8848484611070565b6114f4848484846118bf565b610cdd5760405162461bcd60e51b815260040161066c90612b49565b6060600f805461054d9061294a565b6060816115435750506040805180820190915260018152600360fc1b602082015290565b8160005b811561156d578061155781612b9b565b91506115669050600a83612bcc565b9150611547565b60008167ffffffffffffffff8111156115885761158861282e565b6040519080825280601f01601f1916602001820160405280156115b2576020820181803683370190505b5090505b8415611068576115c7600183612ac5565b91506115d4600a86612be0565b6115df90603061299b565b60f81b8183815181106115f4576115f4612a6c565b60200101906001600160f81b031916908160001a905350611616600a86612bcc565b94506115b6565b6000610538825490565b600081815260018301602052604081205461166e57508154600181810184556000848152602080822090930184905584548482528286019093526040902091909155610538565b506000610538565b60006001600160e01b031982166380ac58cd60e01b14806116a757506001600160e01b03198216635b5e139f60e01b145b806105385750610538826119c9565b6116c083836119ee565b6116cd60008484846118bf565b61070d5760405162461bcd60e51b815260040161066c90612b49565b6116f4838383611b3c565b6001600160a01b038316158061172f575061172f7f8502233096d909befbda0999bb8ea2f3a6be3c138b9fbf003752a4c8bce86f6c33610c12565b1561173957505050565b60405163972c74c760e01b815233600482015260240161066c565b61175e8282610c12565b61096457611776816001600160a01b03166014611bf4565b611781836020611bf4565b604051602001611792929190612bf4565b60408051601f198184030181529082905262461bcd60e51b825261066c916004016124e1565b6117c28282610c12565b15610964576000828152602081815260408083206001600160a01b0385168085529252808320805460ff1916905551339285917ff6391f5c32d9c69d2a47ea670b442974b53935d1edc7fd64eb21e047a839171b9190a45050565b6000610c0b836001600160a01b038416611d90565b6000610c0b8261188f856040517f19457468657265756d205369676e6564204d6573736167653a0a3332000000006020820152603c8101829052600090605c01604051602081830303815290604052805190602001209050919050565b90611e83565b60008260000182815481106118ac576118ac612a6c565b9060005260206000200154905092915050565b60006001600160a01b0384163b156119c157604051630a85bd0160e11b81526001600160a01b0385169063150b7a0290611903903390899088908890600401612c69565b602060405180830381600087803b15801561191d57600080fd5b505af192505050801561194d575060408051601f3d908101601f1916820190925261194a91810190612c9c565b60015b6119a7573d80801561197b576040519150601f19603f3d011682016040523d82523d6000602084013e611980565b606091505b50805161199f5760405162461bcd60e51b815260040161066c90612b49565b805181602001fd5b6001600160e01b031916630a85bd0160e11b149050611068565b506001611068565b60006001600160e01b03198216635a05180f60e01b1480610538575061053882611ea7565b6001600160a01b038216611a445760405162461bcd60e51b815260206004820181905260248201527f4552433732313a206d696e7420746f20746865207a65726f2061646472657373604482015260640161066c565b6000818152600460205260409020546001600160a01b031615611aa95760405162461bcd60e51b815260206004820152601c60248201527f4552433732313a20746f6b656e20616c7265616479206d696e74656400000000604482015260640161066c565b611ab5600083836116e9565b6001600160a01b0382166000908152600560205260408120805460019290611ade90849061299b565b909155505060008181526004602052604080822080546001600160a01b0319166001600160a01b03861690811790915590518392907fddf252ad1be2c89b69c2b068fc378daa952ba7f163c4a11628f55a4df523b3ef908290a45050565b6001600160a01b038316611b9757611b9281600a80546000838152600b60205260408120829055600182018355919091527fc65a7bb8d6351c1cf70c95a316cc6a92839c986682d98bc35f958f4883f9d2a80155565b611bba565b816001600160a01b0316836001600160a01b031614611bba57611bba8382611edc565b6001600160a01b038216611bd15761070d81611f79565b826001600160a01b0316826001600160a01b03161461070d5761070d8282612028565b60606000611c03836002612cb9565b611c0e90600261299b565b67ffffffffffffffff811115611c2657611c2661282e565b6040519080825280601f01601f191660200182016040528015611c50576020820181803683370190505b509050600360fc1b81600081518110611c6b57611c6b612a6c565b60200101906001600160f81b031916908160001a905350600f60fb1b81600181518110611c9a57611c9a612a6c565b60200101906001600160f81b031916908160001a9053506000611cbe846002612cb9565b611cc990600161299b565b90505b6001811115611d41576f181899199a1a9b1b9c1cb0b131b232b360811b85600f1660108110611cfd57611cfd612a6c565b1a60f81b828281518110611d1357611d13612a6c565b60200101906001600160f81b031916908160001a90535060049490941c93611d3a81612cd8565b9050611ccc565b508315610c0b5760405162461bcd60e51b815260206004820181905260248201527f537472696e67733a20686578206c656e67746820696e73756666696369656e74604482015260640161066c565b60008181526001830160205260408120548015611e79576000611db4600183612ac5565b8554909150600090611dc890600190612ac5565b9050818114611e2d576000866000018281548110611de857611de8612a6c565b9060005260206000200154905080876000018481548110611e0b57611e0b612a6c565b6000918252602080832090910192909255918252600188019052604090208390555b8554869080611e3e57611e3e612cef565b600190038181906000526020600020016000905590558560010160008681526020019081526020016000206000905560019350505050610538565b6000915050610538565b6000806000611e92858561206c565b91509150611e9f816120dc565b509392505050565b60006001600160e01b03198216637965db0b60e01b148061053857506301ffc9a760e01b6001600160e01b0319831614610538565b60006001611ee984610b59565b611ef39190612ac5565b600083815260096020526040902054909150808214611f46576001600160a01b03841660009081526008602090815260408083208584528252808320548484528184208190558352600990915290208190555b5060009182526009602090815260408084208490556001600160a01b039094168352600881528383209183525290812055565b600a54600090611f8b90600190612ac5565b6000838152600b6020526040812054600a8054939450909284908110611fb357611fb3612a6c565b9060005260206000200154905080600a8381548110611fd457611fd4612a6c565b6000918252602080832090910192909255828152600b9091526040808220849055858252812055600a80548061200c5761200c612cef565b6001900381819060005260206000200160009055905550505050565b600061203383610b59565b6001600160a01b039093166000908152600860209081526040808320868452825280832085905593825260099052919091209190915550565b6000808251604114156120a35760208301516040840151606085015160001a61209787828585612297565b945094505050506120d5565b8251604014156120cd57602083015160408401516120c2868383612384565b9350935050506120d5565b506000905060025b9250929050565b60008160048111156120f0576120f0612d05565b14156120f95750565b600181600481111561210d5761210d612d05565b141561215b5760405162461bcd60e51b815260206004820152601860248201527f45434453413a20696e76616c6964207369676e61747572650000000000000000604482015260640161066c565b600281600481111561216f5761216f612d05565b14156121bd5760405162461bcd60e51b815260206004820152601f60248201527f45434453413a20696e76616c6964207369676e6174757265206c656e67746800604482015260640161066c565b60038160048111156121d1576121d1612d05565b141561222a5760405162461bcd60e51b815260206004820152602260248201527f45434453413a20696e76616c6964207369676e6174757265202773272076616c604482015261756560f01b606482015260840161066c565b600481600481111561223e5761223e612d05565b1415610b565760405162461bcd60e51b815260206004820152602260248201527f45434453413a20696e76616c6964207369676e6174757265202776272076616c604482015261756560f01b606482015260840161066c565b6000807f7fffffffffffffffffffffffffffffff5d576e7357a4501ddfe92f46681b20a08311156122ce575060009050600361237b565b8460ff16601b141580156122e657508460ff16601c14155b156122f7575060009050600461237b565b6040805160008082526020820180845289905260ff881692820192909252606081018690526080810185905260019060a0016020604051602081039080840390855afa15801561234b573d6000803e3d6000fd5b5050604051601f1901519150506001600160a01b0381166123745760006001925092505061237b565b9150600090505b94509492505050565b6000806001600160ff1b038316816123a160ff86901c601b61299b565b90506123af87828885612297565b935093505050935093915050565b8280546123c99061294a565b90600052602060002090601f0160209004810192826123eb5760008555612431565b82601f106124045782800160ff19823516178555612431565b82800160010185558215612431579182015b82811115612431578235825591602001919060010190612416565b5061243d929150612441565b5090565b5b8082111561243d5760008155600101612442565b6001600160e01b031981168114610b5657600080fd5b60006020828403121561247e57600080fd5b8135610c0b81612456565b60005b838110156124a457818101518382015260200161248c565b83811115610cdd5750506000910152565b600081518084526124cd816020860160208601612489565b601f01601f19169290920160200192915050565b602081526000610c0b60208301846124b5565b60006020828403121561250657600080fd5b5035919050565b80356001600160a01b038116811461252457600080fd5b919050565b6000806040838503121561253c57600080fd5b6125458361250d565b946020939093013593505050565b60008083601f84011261256557600080fd5b50813567ffffffffffffffff81111561257d57600080fd5b6020830191508360208285010111156120d557600080fd5b600080600080604085870312156125ab57600080fd5b843567ffffffffffffffff808211156125c357600080fd5b6125cf88838901612553565b909650945060208701359150808211156125e857600080fd5b506125f587828801612553565b95989497509550505050565b60008060006060848603121561261657600080fd5b61261f8461250d565b925061262d6020850161250d565b9150604084013590509250925092565b6000806040838503121561265057600080fd5b823591506126606020840161250d565b90509250929050565b6000806020838503121561267c57600080fd5b823567ffffffffffffffff81111561269357600080fd5b61269f85828601612553565b90969095509350505050565b600080600080600080608087890312156126c457600080fd5b863567ffffffffffffffff808211156126dc57600080fd5b6126e88a838b01612553565b9098509650602089013591508082111561270157600080fd5b5061270e89828a01612553565b909550935061272190506040880161250d565b9150606087013590509295509295509295565b60006020828403121561274657600080fd5b610c0b8261250d565b6000806040838503121561276257600080fd5b50508035926020909101359150565b6000806040838503121561278457600080fd5b61278d8361250d565b9150602083013580151581146127a257600080fd5b809150509250929050565b6000806000806000606086880312156127c557600080fd5b853567ffffffffffffffff808211156127dd57600080fd5b6127e989838a01612553565b9097509550602088013591508082111561280257600080fd5b5061280f88828901612553565b909450925061282290506040870161250d565b90509295509295909350565b634e487b7160e01b600052604160045260246000fd5b6000806000806080858703121561285a57600080fd5b6128638561250d565b93506128716020860161250d565b925060408501359150606085013567ffffffffffffffff8082111561289557600080fd5b818701915087601f8301126128a957600080fd5b8135818111156128bb576128bb61282e565b604051601f8201601f19908116603f011681019083821181831017156128e3576128e361282e565b816040528281528a60208487010111156128fc57600080fd5b82602086016020830137600060208483010152809550505050505092959194509250565b6000806040838503121561293357600080fd5b61293c8361250d565b91506126606020840161250d565b600181811c9082168061295e57607f821691505b6020821081141561297f57634e487b7160e01b600052602260045260246000fd5b50919050565b634e487b7160e01b600052601160045260246000fd5b600082198211156129ae576129ae612985565b500190565b81835281816020850137506000828201602090810191909152601f909101601f19169091010190565b6060815260006129f06060830187896129b3565b8281036020840152612a038186886129b3565b91505060018060a01b03831660408301529695505050505050565b6020808252602e908201527f4552433732313a2063616c6c6572206973206e6f7420746f6b656e206f776e6560408201526d1c881b9bdc88185c1c1c9bdd995960921b606082015260800190565b634e487b7160e01b600052603260045260246000fd5b60008451612a94818460208901612489565b845190830190612aa8818360208901612489565b8451910190612abb818360208801612489565b0195945050505050565b600082821015612ad757612ad7612985565b500390565b608081526000612af06080830187896129b3565b6001600160a01b039586166020840152939094166040820152606001529392505050565b606081526000612b286060830186886129b3565b6001600160a01b039485166020840152929093166040909101529392505050565b60208082526032908201527f4552433732313a207472616e7366657220746f206e6f6e20455243373231526560408201527131b2b4bb32b91034b6b83632b6b2b73a32b960711b606082015260800190565b6000600019821415612baf57612baf612985565b5060010190565b634e487b7160e01b600052601260045260246000fd5b600082612bdb57612bdb612bb6565b500490565b600082612bef57612bef612bb6565b500690565b7f416363657373436f6e74726f6c3a206163636f756e7420000000000000000000815260008351612c2c816017850160208801612489565b7001034b99036b4b9b9b4b733903937b6329607d1b6017918401918201528351612c5d816028840160208801612489565b01602801949350505050565b6001600160a01b0385811682528416602082015260408101839052608060608201819052600090610ca1908301846124b5565b600060208284031215612cae57600080fd5b8151610c0b81612456565b6000816000190483118215151615612cd357612cd3612985565b500290565b600081612ce757612ce7612985565b506000190190565b634e487b7160e01b600052603160045260246000fd5b634e487b7160e01b600052602160045260246000fdfea26469706673582212205a258ae923ea6f26ba4b5f2f4a3b8730bad501940f345c3858e4483495b2d64e64736f6c63430008090033",
  "linkReferences": {},
  "deployedLinkReferences": {}
}