{
  "_format": "hh-sol-artifact-1",
  "contractName": "EvolvingTitan",
  "sourceName": "contracts/EvolvingTitan.sol",
  "abi": [
    {
      "inputs": [],
      "stateMutability": "nonpayable",
      "type": "constructor"
    },
    {
      "inputs": [
        {
          "internalType": "address",
          "name": "_caller",
          "type": "address"
        }
      ],
      "name": "AddressAlreadyClaimed",
      "type": "error"
    },
    {
      "inputs": [
        {
          "internalType": "string",
          "name": "_salt",
          "type": "string"
        },
        {
          "internalType": "bytes",
          "name": "_signature",
          "type": "bytes"
        },
        {
          "internalType": "address",
          "name": "_caller",
          "type": "address"
        }
      ],
      "name": "InvalidSignature",
      "type": "error"
    },
    {
      "inputs": [
        {
          "internalType": "string",
          "name": "_errorMessage",
          "type": "string"
        },
        {
          "internalType": "address",
          "name": "_caller",
          "type": "address"
        }
      ],
      "name": "PermissionDenied",
      "type": "error"
    },
    {
      "inputs": [
        {
          "internalType": "uint256",
          "name": "_tokenId",
          "type": "uint256"
        }
      ],
      "name": "TokenIDDoesNotExist",
      "type": "error"
    },
    {
      "anonymous": false,
      "inputs": [
        {
          "indexed": true,
          "internalType": "address",
          "name": "owner",
          "type": "address"
        },
        {
          "indexed": true,
          "internalType": "address",
          "name": "approved",
          "type": "address"
        },
        {
          "indexed": true,
          "internalType": "uint256",
          "name": "tokenId",
          "type": "uint256"
        }
      ],
      "name": "Approval",
      "type": "event"
    },
    {
      "anonymous": false,
      "inputs": [
        {
          "indexed": true,
          "internalType": "address",
          "name": "owner",
          "type": "address"
        },
        {
          "indexed": true,
          "internalType": "address",
          "name": "operator",
          "type": "address"
        },
        {
          "indexed": false,
          "internalType": "bool",
          "name": "approved",
          "type": "bool"
        }
      ],
      "name": "ApprovalForAll",
      "type": "event"
    },
    {
      "anonymous": false,
      "inputs": [
        {
          "indexed": true,
          "internalType": "address",
          "name": "previousOwner",
          "type": "address"
        },
        {
          "indexed": true,
          "internalType": "address",
          "name": "newOwner",
          "type": "address"
        }
      ],
      "name": "OwnershipTransferred",
      "type": "event"
    },
    {
      "anonymous": false,
      "inputs": [
        {
          "indexed": true,
          "internalType": "bytes32",
          "name": "role",
          "type": "bytes32"
        },
        {
          "indexed": true,
          "internalType": "bytes32",
          "name": "previousAdminRole",
          "type": "bytes32"
        },
        {
          "indexed": true,
          "internalType": "bytes32",
          "name": "newAdminRole",
          "type": "bytes32"
        }
      ],
      "name": "RoleAdminChanged",
      "type": "event"
    },
    {
      "anonymous": false,
      "inputs": [
        {
          "indexed": true,
          "internalType": "bytes32",
          "name": "role",
          "type": "bytes32"
        },
        {
          "indexed": true,
          "internalType": "address",
          "name": "account",
          "type": "address"
        },
        {
          "indexed": true,
          "internalType": "address",
          "name": "sender",
          "type": "address"
        }
      ],
      "name": "RoleGranted",
      "type": "event"
    },
    {
      "anonymous": false,
      "inputs": [
        {
          "indexed": true,
          "internalType": "bytes32",
          "name": "role",
          "type": "bytes32"
        },
        {
          "indexed": true,
          "internalType": "address",
          "name": "account",
          "type": "address"
        },
        {
          "indexed": true,
          "internalType": "address",
          "name": "sender",
          "type": "address"
        }
      ],
      "name": "RoleRevoked",
      "type": "event"
    },
    {
      "anonymous": false,
      "inputs": [
        {
          "indexed": false,
          "internalType": "address",
          "name": "newSigner",
          "type": "address"
        }
      ],
      "name": "SignerUpdated",
      "type": "event"
    },
    {
      "anonymous": false,
      "inputs": [
        {
          "indexed": true,
          "internalType": "address",
          "name": "from",
          "type": "address"
        },
        {
          "indexed": true,
          "internalType": "address",
          "name": "to",
          "type": "address"
        },
        {
          "indexed": true,
          "internalType": "uint256",
          "name": "tokenId",
          "type": "uint256"
        }
      ],
      "name": "Transfer",
      "type": "event"
    },
    {
      "anonymous": false,
      "inputs": [
        {
          "indexed": false,
          "internalType": "uint256",
          "name": "tokenID",
          "type": "uint256"
        },
        {
          "indexed": false,
          "internalType": "address",
          "name": "minterAddress",
          "type": "address"
        }
      ],
      "name": "tokenMinted",
      "type": "event"
    },
    {
      "inputs": [],
      "name": "DEFAULT_ADMIN_ROLE",
      "outputs": [
        {
          "internalType": "bytes32",
          "name": "",
          "type": "bytes32"
        }
      ],
      "stateMutability": "view",
      "type": "function"
    },
    {
      "inputs": [],
      "name": "SIGNER_ROLE",
      "outputs": [
        {
          "internalType": "bytes32",
          "name": "",
          "type": "bytes32"
        }
      ],
      "stateMutability": "view",
      "type": "function"
    },
    {
      "inputs": [],
      "name": "TRANSFER_ROLE",
      "outputs": [
        {
          "internalType": "bytes32",
          "name": "",
          "type": "bytes32"
        }
      ],
      "stateMutability": "view",
      "type": "function"
    },
    {
      "inputs": [
        {
          "internalType": "address",
          "name": "to",
          "type": "address"
        },
        {
          "internalType": "uint256",
          "name": "tokenId",
          "type": "uint256"
        }
      ],
      "name": "approve",
      "outputs": [],
      "stateMutability": "nonpayable",
      "type": "function"
    },
    {
      "inputs": [
        {
          "internalType": "address",
          "name": "owner",
          "type": "address"
        }
      ],
      "name": "balanceOf",
      "outputs": [
        {
          "internalType": "uint256",
          "name": "",
          "type": "uint256"
        }
      ],
      "stateMutability": "view",
      "type": "function"
    },
    {
      "inputs": [
        {
          "internalType": "string",
          "name": "_salt",
          "type": "string"
        },
        {
          "internalType": "bytes",
          "name": "_signature",
          "type": "bytes"
        }
      ],
      "name": "claim",
      "outputs": [],
      "stateMutability": "nonpayable",
      "type": "function"
    },
    {
      "inputs": [
        {
          "internalType": "address",
          "name": "",
          "type": "address"
        }
      ],
      "name": "claimedNFT",
      "outputs": [
        {
          "internalType": "bool",
          "name": "",
          "type": "bool"
        }
      ],
      "stateMutability": "view",
      "type": "function"
    },
    {
      "inputs": [
        {
          "internalType": "uint256",
          "name": "tokenId",
          "type": "uint256"
        }
      ],
      "name": "getApproved",
      "outputs": [
        {
          "internalType": "address",
          "name": "",
          "type": "address"
        }
      ],
      "stateMutability": "view",
      "type": "function"
    },
    {
      "inputs": [
        {
          "internalType": "bytes32",
          "name": "role",
          "type": "bytes32"
        }
      ],
      "name": "getRoleAdmin",
      "outputs": [
        {
          "internalType": "bytes32",
          "name": "",
          "type": "bytes32"
        }
      ],
      "stateMutability": "view",
      "type": "function"
    },
    {
      "inputs": [
        {
          "internalType": "bytes32",
          "name": "role",
          "type": "bytes32"
        },
        {
          "internalType": "uint256",
          "name": "index",
          "type": "uint256"
        }
      ],
      "name": "getRoleMember",
      "outputs": [
        {
          "internalType": "address",
          "name": "",
          "type": "address"
        }
      ],
      "stateMutability": "view",
      "type": "function"
    },
    {
      "inputs": [
        {
          "internalType": "bytes32",
          "name": "role",
          "type": "bytes32"
        }
      ],
      "name": "getRoleMemberCount",
      "outputs": [
        {
          "internalType": "uint256",
          "name": "",
          "type": "uint256"
        }
      ],
      "stateMutability": "view",
      "type": "function"
    },
    {
      "inputs": [
        {
          "internalType": "bytes32",
          "name": "role",
          "type": "bytes32"
        },
        {
          "internalType": "address",
          "name": "account",
          "type": "address"
        }
      ],
      "name": "grantRole",
      "outputs": [],
      "stateMutability": "nonpayable",
      "type": "function"
    },
    {
      "inputs": [
        {
          "internalType": "bytes32",
          "name": "role",
          "type": "bytes32"
        },
        {
          "internalType": "address",
          "name": "account",
          "type": "address"
        }
      ],
      "name": "hasRole",
      "outputs": [
        {
          "internalType": "bool",
          "name": "",
          "type": "bool"
        }
      ],
      "stateMutability": "view",
      "type": "function"
    },
    {
      "inputs": [
        {
          "internalType": "address",
          "name": "owner",
          "type": "address"
        },
        {
          "internalType": "address",
          "name": "operator",
          "type": "address"
        }
      ],
      "name": "isApprovedForAll",
      "outputs": [
        {
          "internalType": "bool",
          "name": "",
          "type": "bool"
        }
      ],
      "stateMutability": "view",
      "type": "function"
    },
    {
      "inputs": [],
      "name": "name",
      "outputs": [
        {
          "internalType": "string",
          "name": "",
          "type": "string"
        }
      ],
      "stateMutability": "view",
      "type": "function"
    },
    {
      "inputs": [],
      "name": "owner",
      "outputs": [
        {
          "internalType": "address",
          "name": "",
          "type": "address"
        }
      ],
      "stateMutability": "view",
      "type": "function"
    },
    {
      "inputs": [
        {
          "internalType": "uint256",
          "name": "tokenId",
          "type": "uint256"
        }
      ],
      "name": "ownerOf",
      "outputs": [
        {
          "internalType": "address",
          "name": "",
          "type": "address"
        }
      ],
      "stateMutability": "view",
      "type": "function"
    },
    {
      "inputs": [],
      "name": "renounceOwnership",
      "outputs": [],
      "stateMutability": "nonpayable",
      "type": "function"
    },
    {
      "inputs": [
        {
          "internalType": "bytes32",
          "name": "role",
          "type": "bytes32"
        },
        {
          "internalType": "address",
          "name": "account",
          "type": "address"
        }
      ],
      "name": "renounceRole",
      "outputs": [],
      "stateMutability": "nonpayable",
      "type": "function"
    },
    {
      "inputs": [
        {
          "internalType": "bytes32",
          "name": "role",
          "type": "bytes32"
        },
        {
          "internalType": "address",
          "name": "account",
          "type": "address"
        }
      ],
      "name": "revokeRole",
      "outputs": [],
      "stateMutability": "nonpayable",
      "type": "function"
    },
    {
      "inputs": [
        {
          "internalType": "address",
          "name": "from",
          "type": "address"
        },
        {
          "internalType": "address",
          "name": "to",
          "type": "address"
        },
        {
          "internalType": "uint256",
          "name": "tokenId",
          "type": "uint256"
        }
      ],
      "name": "safeTransferFrom",
      "outputs": [],
      "stateMutability": "nonpayable",
      "type": "function"
    },
    {
      "inputs": [
        {
          "internalType": "address",
          "name": "from",
          "type": "address"
        },
        {
          "internalType": "address",
          "name": "to",
          "type": "address"
        },
        {
          "internalType": "uint256",
          "name": "tokenId",
          "type": "uint256"
        },
        {
          "internalType": "bytes",
          "name": "data",
          "type": "bytes"
        }
      ],
      "name": "safeTransferFrom",
      "outputs": [],
      "stateMutability": "nonpayable",
      "type": "function"
    },
    {
      "inputs": [
        {
          "internalType": "address",
          "name": "operator",
          "type": "address"
        },
        {
          "internalType": "bool",
          "name": "approved",
          "type": "bool"
        }
      ],
      "name": "setApprovalForAll",
      "outputs": [],
      "stateMutability": "nonpayable",
      "type": "function"
    },
    {
      "inputs": [
        {
          "internalType": "string",
          "name": "_newURI",
          "type": "string"
        }
      ],
      "name": "setBaseURI",
      "outputs": [],
      "stateMutability": "nonpayable",
      "type": "function"
    },
    {
      "inputs": [
        {
          "internalType": "address",
          "name": "_newSigner",
          "type": "address"
        }
      ],
      "name": "setSigner",
      "outputs": [],
      "stateMutability": "nonpayable",
      "type": "function"
    },
    {
      "inputs": [
        {
          "internalType": "bytes4",
          "name": "interfaceId",
          "type": "bytes4"
        }
      ],
      "name": "supportsInterface",
      "outputs": [
        {
          "internalType": "bool",
          "name": "",
          "type": "bool"
        }
      ],
      "stateMutability": "view",
      "type": "function"
    },
    {
      "inputs": [],
      "name": "symbol",
      "outputs": [
        {
          "internalType": "string",
          "name": "",
          "type": "string"
        }
      ],
      "stateMutability": "view",
      "type": "function"
    },
    {
      "inputs": [
        {
          "internalType": "uint256",
          "name": "index",
          "type": "uint256"
        }
      ],
      "name": "tokenByIndex",
      "outputs": [
        {
          "internalType": "uint256",
          "name": "",
          "type": "uint256"
        }
      ],
      "stateMutability": "view",
      "type": "function"
    },
    {
      "inputs": [
        {
          "internalType": "address",
          "name": "owner",
          "type": "address"
        },
        {
          "internalType": "uint256",
          "name": "index",
          "type": "uint256"
        }
      ],
      "name": "tokenOfOwnerByIndex",
      "outputs": [
        {
          "internalType": "uint256",
          "name": "",
          "type": "uint256"
        }
      ],
      "stateMutability": "view",
      "type": "function"
    },
    {
      "inputs": [
        {
          "internalType": "uint256",
          "name": "_tokenId",
          "type": "uint256"
        }
      ],
      "name": "tokenURI",
      "outputs": [
        {
          "internalType": "string",
          "name": "",
          "type": "string"
        }
      ],
      "stateMutability": "view",
      "type": "function"
    },
    {
      "inputs": [],
      "name": "totalSupply",
      "outputs": [
        {
          "internalType": "uint256",
          "name": "",
          "type": "uint256"
        }
      ],
      "stateMutability": "view",
      "type": "function"
    },
    {
      "inputs": [
        {
          "internalType": "address",
          "name": "from",
          "type": "address"
        },
        {
          "internalType": "address",
          "name": "to",
          "type": "address"
        },
        {
          "internalType": "uint256",
          "name": "tokenId",
          "type": "uint256"
        }
      ],
      "name": "transferFrom",
      "outputs": [],
      "stateMutability": "nonpayable",
      "type": "function"
    },
    {
      "inputs": [
        {
          "internalType": "address",
          "name": "newOwner",
          "type": "address"
        }
      ],
      "name": "transferOwnership",
      "outputs": [],
      "stateMutability": "nonpayable",
      "type": "function"
    },
    {
      "inputs": [
        {
          "internalType": "string",
          "name": "_salt",
          "type": "string"
        },
        {
          "internalType": "bytes",
          "name": "_token",
          "type": "bytes"
        },
        {
          "internalType": "address",
          "name": "_address",
          "type": "address"
        },
        {
          "internalType": "uint256",
          "name": "_tokenId",
          "type": "uint256"
        }
      ],
      "name": "verifyTokenForAddress",
      "outputs": [
        {
          "internalType": "bool",
          "name": "",
          "type": "bool"
        }
      ],
      "stateMutability": "view",
      "type": "function"
    },
    {
      "inputs": [
        {
          "internalType": "string",
          "name": "_salt",
          "type": "string"
        },
        {
          "internalType": "bytes",
          "name": "_token",
          "type": "bytes"
        },
        {
          "internalType": "address",
          "name": "_address",
          "type": "address"
        }
      ],
      "name": "verifyTokenForAddress",
      "outputs": [
        {
          "internalType": "bool",
          "name": "",
          "type": "bool"
        }
      ],
      "stateMutability": "view",
      "type": "function"
    }
  ],
  "bytecode": "0x60806040523480156200001157600080fd5b50604080518082018252601481527f4b4f494f532045766f6c76696e6720546974616e00000000000000000000000060208083019182528351808501909452600684526532aa24aa20a760d11b9084015281519192916200007591600291620002ce565b5080516200008b906003906020840190620002ce565b505050620000a8620000a26200011360201b60201c565b62000117565b620000b560003362000169565b620000e17fe2f4eaae4a9751e85a3e4a7b9587827a877f29914755229b07a7b2da98285f703362000169565b6200010d7f8502233096d909befbda0999bb8ea2f3a6be3c138b9fbf003752a4c8bce86f6c3362000169565b620003b1565b3390565b600c80546001600160a01b038381166001600160a01b0319831681179093556040519116919082907f8be0079c531659141344cd1fd0a4f28419497f9722a3daafe3b4186f6b6457e090600090a35050565b62000175828262000179565b5050565b620001908282620001bc60201b62000eaa1760201c565b6000828152600160209081526040909120620001b791839062000f2e6200025c821b17901c565b505050565b6000828152602081815260408083206001600160a01b038516845290915290205460ff1662000175576000828152602081815260408083206001600160a01b03851684529091529020805460ff19166001179055620002183390565b6001600160a01b0316816001600160a01b0316837f2f8788117e7eff1d82e926ec794901d17c78024a50270940304540a733656f0d60405160405180910390a45050565b600062000273836001600160a01b0384166200027c565b90505b92915050565b6000818152600183016020526040812054620002c55750815460018181018455600084815260208082209093018490558454848252828601909352604090209190915562000276565b50600062000276565b828054620002dc9062000374565b90600052602060002090601f0160209004810192826200030057600085556200034b565b82601f106200031b57805160ff19168380011785556200034b565b828001600101855582156200034b579182015b828111156200034b5782518255916020019190600101906200032e565b50620003599291506200035d565b5090565b5b808211156200035957600081556001016200035e565b600181811c908216806200038957607f821691505b60208210811415620003ab57634e487b7160e01b600052602260045260246000fd5b50919050565b612dce80620003c16000396000f3fe608060405234801561001057600080fd5b50600436106102115760003560e01c806365f9804611610125578063a217fddf116100ad578063c87b56dd1161007c578063c87b56dd146104a5578063ca15c873146104b8578063d547741f146104cb578063e985e9c5146104de578063f2fde38b1461051a57600080fd5b8063a217fddf14610464578063a22cb4651461046c578063a34932db1461047f578063b88d4fde1461049257600080fd5b80638da5cb5b116100f45780638da5cb5b146103fe5780639010d07c1461040f57806391d148541461042257806395d89b4114610435578063a1ebf35d1461043d57600080fd5b806365f98046146103ad5780636c19e783146103d057806370a08231146103e3578063715018a6146103f657600080fd5b8063248a9ca3116101a857806342842e0e1161017757806342842e0e1461034e5780634f6ccce71461036157806355f804b314610374578063614c972b146103875780636352211e1461039a57600080fd5b8063248a9ca3146102f25780632f2ff15d146103155780632f745c591461032857806336568abe1461033b57600080fd5b80630bfc803d116101e45780630bfc803d1461029357806318160ddd146102a6578063206b60f9146102b857806323b872dd146102df57600080fd5b806301ffc9a71461021657806306fdde031461023e578063081812fc14610253578063095ea7b31461027e575b600080fd5b6102296102243660046124e9565b61052d565b60405190151581526020015b60405180910390f35b61024661053e565b604051610235919061255e565b610266610261366004612571565b6105d0565b6040516001600160a01b039091168152602001610235565b61029161028c3660046125a6565b6105f7565b005b6102916102a1366004612612565b610712565b600a545b604051908152602001610235565b6102aa7f8502233096d909befbda0999bb8ea2f3a6be3c138b9fbf003752a4c8bce86f6c81565b6102916102ed36600461267e565b6107fe565b6102aa610300366004612571565b60009081526020819052604090206001015490565b6102916103233660046126ba565b61082f565b6102aa6103363660046125a6565b610854565b6102916103493660046126ba565b6108ea565b61029161035c36600461267e565b610968565b6102aa61036f366004612571565b610983565b6102916103823660046126e6565b610a16565b610229610395366004612728565b610a7b565b6102666103a8366004612571565b610ad3565b6102296103bb3660046127b1565b600e6020526000908152604090205460ff1681565b6102916103de3660046127b1565b610b33565b6102aa6103f13660046127b1565b610bb7565b610291610c3d565b600c546001600160a01b0316610266565b61026661041d3660046127cc565b610c51565b6102296104303660046126ba565b610c70565b610246610c99565b6102aa7fe2f4eaae4a9751e85a3e4a7b9587827a877f29914755229b07a7b2da98285f7081565b6102aa600081565b61029161047a3660046127ee565b610ca8565b61022961048d36600461282a565b610cb3565b6102916104a03660046128c1565b610d09565b6102466104b3366004612571565b610d41565b6102aa6104c6366004612571565b610df8565b6102916104d93660046126ba565b610e0f565b6102296104ec36600461299d565b6001600160a01b03918216600090815260076020908152604080832093909416825291909152205460ff1690565b6102916105283660046127b1565b610e34565b600061053882610f43565b92915050565b60606002805461054d906129c7565b80601f0160208091040260200160405190810160405280929190818152602001828054610579906129c7565b80156105c65780601f1061059b576101008083540402835291602001916105c6565b820191906000526020600020905b8154815290600101906020018083116105a957829003601f168201915b5050505050905090565b60006105db82610f68565b506000908152600660205260409020546001600160a01b031690565b600061060282610ad3565b9050806001600160a01b0316836001600160a01b031614156106755760405162461bcd60e51b815260206004820152602160248201527f4552433732313a20617070726f76616c20746f2063757272656e74206f776e656044820152603960f91b60648201526084015b60405180910390fd5b336001600160a01b0382161480610691575061069181336104ec565b6107035760405162461bcd60e51b815260206004820152603e60248201527f4552433732313a20617070726f76652063616c6c6572206973206e6f7420746f60448201527f6b656e206f776e6572206e6f7220617070726f76656420666f7220616c6c0000606482015260840161066c565b61070d8383610fc7565b505050565b600061071d600a5490565b9050600061072c826001612a18565b336000908152600e602052604090205490915060ff16156107625760405163096238d760e31b815233600482015260240161066c565b61076f8686868633610cb3565b6107965785858585336040516320a4673b60e11b815260040161066c959493929190612a59565b6107a03382611035565b336000818152600e6020908152604091829020805460ff1916600117905581518481529081019290925280517f55d785d3e2a7effd275e725eb0fd1a1457366d1d3709f9bb61cd2d83913fdb839281900390910190a1505050505050565b610808338261104f565b6108245760405162461bcd60e51b815260040161066c90612a9b565b61070d8383836110ce565b60008281526020819052604090206001015461084a81611158565b61070d8383611162565b600061085f83610bb7565b82106108c15760405162461bcd60e51b815260206004820152602b60248201527f455243373231456e756d657261626c653a206f776e657220696e646578206f7560448201526a74206f6620626f756e647360a81b606482015260840161066c565b506001600160a01b03919091166000908152600860209081526040808320938352929052205490565b6001600160a01b038116331461095a5760405162461bcd60e51b815260206004820152602f60248201527f416363657373436f6e74726f6c3a2063616e206f6e6c792072656e6f756e636560448201526e103937b632b9903337b91039b2b63360891b606482015260840161066c565b6109648282611184565b5050565b61070d83838360405180602001604052806000815250610d09565b600061098e600a5490565b82106109f15760405162461bcd60e51b815260206004820152602c60248201527f455243373231456e756d657261626c653a20676c6f62616c20696e646578206f60448201526b7574206f6620626f756e647360a01b606482015260840161066c565b600a8281548110610a0457610a04612ae9565b90600052602060002001549050919050565b610a21600033610c70565b610a6f576040805163b72d3d0d60e01b81526004810191909152601660448201527521b0b63632b91034b9903737ba1030b71030b236b4b760511b606482015233602482015260840161066c565b61070d600f838361243a565b6000610ac8610a8c888885876111a6565b86868080601f0160208091040260200160405190810160405280939291908181526020018383808284376000920191909152506111e192505050565b979650505050505050565b6000818152600460205260408120546001600160a01b0316806105385760405162461bcd60e51b8152602060048201526018602482015277115490cdcc8c4e881a5b9d985b1a59081d1bdad95b88125160421b604482015260640161066c565b610b5d7fe2f4eaae4a9751e85a3e4a7b9587827a877f29914755229b07a7b2da98285f7033610c70565b610bab576040805163b72d3d0d60e01b81526004810191909152601660448201527521b0b63632b91034b9903737ba10309039b4b3b732b960511b606482015233602482015260840161066c565b610bb48161120b565b50565b60006001600160a01b038216610c215760405162461bcd60e51b815260206004820152602960248201527f4552433732313a2061646472657373207a65726f206973206e6f7420612076616044820152683634b21037bbb732b960b91b606482015260840161066c565b506001600160a01b031660009081526005602052604090205490565b610c4561125f565b610c4f60006112b9565b565b6000828152600160205260408120610c69908361130b565b9392505050565b6000918252602082815260408084206001600160a01b0393909316845291905290205460ff1690565b60606003805461054d906129c7565b610964338383611317565b6000610cff610cc38787856113e6565b85858080601f0160208091040260200160405190810160405280939291908181526020018383808284376000920191909152506111e192505050565b9695505050505050565b610d13338361104f565b610d2f5760405162461bcd60e51b815260040161066c90612a9b565b610d3b8484848461141e565b50505050565b6000818152600460205260409020546060906001600160a01b0316610d7c5760405163174ae5a960e21b81526004810183905260240161066c565b6000610d86611451565b604080518082019091526005815264173539b7b760d91b6020820152815191925090610dc357505060408051602081019091526000815292915050565b81610dcd85611460565b82604051602001610de093929190612aff565b60405160208183030381529060405292505050919050565b60008181526001602052604081206105389061155e565b600082815260208190526040902060010154610e2a81611158565b61070d8383611184565b610e3c61125f565b6001600160a01b038116610ea15760405162461bcd60e51b815260206004820152602660248201527f4f776e61626c653a206e6577206f776e657220697320746865207a65726f206160448201526564647265737360d01b606482015260840161066c565b610bb4816112b9565b610eb48282610c70565b610964576000828152602081815260408083206001600160a01b03851684529091529020805460ff19166001179055610eea3390565b6001600160a01b0316816001600160a01b0316837f2f8788117e7eff1d82e926ec794901d17c78024a50270940304540a733656f0d60405160405180910390a45050565b6000610c69836001600160a01b038416611568565b60006001600160e01b0319821663780e9d6360e01b14806105385750610538826115b7565b6000818152600460205260409020546001600160a01b0316610bb45760405162461bcd60e51b8152602060048201526018602482015277115490cdcc8c4e881a5b9d985b1a59081d1bdad95b88125160421b604482015260640161066c565b600081815260066020526040902080546001600160a01b0319166001600160a01b0384169081179091558190610ffc82610ad3565b6001600160a01b03167f8c5be1e5ebec7d5bd14f71427d1e84f3dd0314c0f7b2291e5b200ac8c7c3b92560405160405180910390a45050565b6109648282604051806020016040528060008152506115f7565b60008061105b83610ad3565b9050806001600160a01b0316846001600160a01b031614806110a257506001600160a01b0380821660009081526007602090815260408083209388168352929052205460ff165b806110c65750836001600160a01b03166110bb846105d0565b6001600160a01b0316145b949350505050565b6110f87f8502233096d909befbda0999bb8ea2f3a6be3c138b9fbf003752a4c8bce86f6c33610c70565b61114d576040805163b72d3d0d60e01b81526004810191909152601b60448201527f43616c6c6572206973206e6f742061207472616e736665727265720000000000606482015233602482015260840161066c565b61070d83838361162a565b610bb481336117d1565b61116c8282610eaa565b600082815260016020526040902061070d9082610f2e565b61118e8282611835565b600082815260016020526040902061070d908261189a565b600084843084866040516020016111c1959493929190612b42565b604051602081830303815290604052805190602001209050949350505050565b600d546000906001600160a01b03166111fa84846118af565b6001600160a01b0316149392505050565b600d80546001600160a01b0319166001600160a01b0383169081179091556040519081527f5553331329228fbd4123164423717a4a7539f6dfa1c3279a923b98fd681a6c739060200160405180910390a150565b600c546001600160a01b03163314610c4f5760405162461bcd60e51b815260206004820181905260248201527f4f776e61626c653a2063616c6c6572206973206e6f7420746865206f776e6572604482015260640161066c565b600c80546001600160a01b038381166001600160a01b0319831681179093556040519116919082907f8be0079c531659141344cd1fd0a4f28419497f9722a3daafe3b4186f6b6457e090600090a35050565b6000610c698383611912565b816001600160a01b0316836001600160a01b031614156113795760405162461bcd60e51b815260206004820152601960248201527f4552433732313a20617070726f766520746f2063616c6c657200000000000000604482015260640161066c565b6001600160a01b03838116600081815260076020908152604080832094871680845294825291829020805460ff191686151590811790915591519182527f17307eab39ab6107e8899845ad3d59bd9653f200f220920489ca2b5937696c31910160405180910390a3505050565b6000838330846040516020016113ff9493929190612b7a565b6040516020818303038152906040528051906020012090509392505050565b6114298484846110ce565b6114358484848461193c565b610d3b5760405162461bcd60e51b815260040161066c90612baf565b6060600f805461054d906129c7565b6060816114845750506040805180820190915260018152600360fc1b602082015290565b8160005b81156114ae578061149881612c01565b91506114a79050600a83612c32565b9150611488565b60008167ffffffffffffffff8111156114c9576114c96128ab565b6040519080825280601f01601f1916602001820160405280156114f3576020820181803683370190505b5090505b84156110c657611508600183612c46565b9150611515600a86612c5d565b611520906030612a18565b60f81b81838151811061153557611535612ae9565b60200101906001600160f81b031916908160001a905350611557600a86612c32565b94506114f7565b6000610538825490565b60008181526001830160205260408120546115af57508154600181810184556000848152602080822090930184905584548482528286019093526040902091909155610538565b506000610538565b60006001600160e01b031982166380ac58cd60e01b14806115e857506001600160e01b03198216635b5e139f60e01b145b80610538575061053882611a46565b6116018383611a6b565b61160e600084848461193c565b61070d5760405162461bcd60e51b815260040161066c90612baf565b826001600160a01b031661163d82610ad3565b6001600160a01b0316146116a15760405162461bcd60e51b815260206004820152602560248201527f4552433732313a207472616e736665722066726f6d20696e636f72726563742060448201526437bbb732b960d91b606482015260840161066c565b6001600160a01b0382166117035760405162461bcd60e51b8152602060048201526024808201527f4552433732313a207472616e7366657220746f20746865207a65726f206164646044820152637265737360e01b606482015260840161066c565b61170e838383611bb9565b611719600082610fc7565b6001600160a01b0383166000908152600560205260408120805460019290611742908490612c46565b90915550506001600160a01b0382166000908152600560205260408120805460019290611770908490612a18565b909155505060008181526004602052604080822080546001600160a01b0319166001600160a01b0386811691821790925591518493918716917fddf252ad1be2c89b69c2b068fc378daa952ba7f163c4a11628f55a4df523b3ef91a4505050565b6117db8282610c70565b610964576117f3816001600160a01b03166014611c71565b6117fe836020611c71565b60405160200161180f929190612c71565b60408051601f198184030181529082905262461bcd60e51b825261066c9160040161255e565b61183f8282610c70565b15610964576000828152602081815260408083206001600160a01b0385168085529252808320805460ff1916905551339285917ff6391f5c32d9c69d2a47ea670b442974b53935d1edc7fd64eb21e047a839171b9190a45050565b6000610c69836001600160a01b038416611e0d565b6000610c698261190c856040517f19457468657265756d205369676e6564204d6573736167653a0a3332000000006020820152603c8101829052600090605c01604051602081830303815290604052805190602001209050919050565b90611f00565b600082600001828154811061192957611929612ae9565b9060005260206000200154905092915050565b60006001600160a01b0384163b15611a3e57604051630a85bd0160e11b81526001600160a01b0385169063150b7a0290611980903390899088908890600401612ce6565b602060405180830381600087803b15801561199a57600080fd5b505af19250505080156119ca575060408051601f3d908101601f191682019092526119c791810190612d19565b60015b611a24573d8080156119f8576040519150601f19603f3d011682016040523d82523d6000602084013e6119fd565b606091505b508051611a1c5760405162461bcd60e51b815260040161066c90612baf565b805181602001fd5b6001600160e01b031916630a85bd0160e11b1490506110c6565b5060016110c6565b60006001600160e01b03198216635a05180f60e01b1480610538575061053882611f24565b6001600160a01b038216611ac15760405162461bcd60e51b815260206004820181905260248201527f4552433732313a206d696e7420746f20746865207a65726f2061646472657373604482015260640161066c565b6000818152600460205260409020546001600160a01b031615611b265760405162461bcd60e51b815260206004820152601c60248201527f4552433732313a20746f6b656e20616c7265616479206d696e74656400000000604482015260640161066c565b611b3260008383611bb9565b6001600160a01b0382166000908152600560205260408120805460019290611b5b908490612a18565b909155505060008181526004602052604080822080546001600160a01b0319166001600160a01b03861690811790915590518392907fddf252ad1be2c89b69c2b068fc378daa952ba7f163c4a11628f55a4df523b3ef908290a45050565b6001600160a01b038316611c1457611c0f81600a80546000838152600b60205260408120829055600182018355919091527fc65a7bb8d6351c1cf70c95a316cc6a92839c986682d98bc35f958f4883f9d2a80155565b611c37565b816001600160a01b0316836001600160a01b031614611c3757611c378382611f59565b6001600160a01b038216611c4e5761070d81611ff6565b826001600160a01b0316826001600160a01b03161461070d5761070d82826120a5565b60606000611c80836002612d36565b611c8b906002612a18565b67ffffffffffffffff811115611ca357611ca36128ab565b6040519080825280601f01601f191660200182016040528015611ccd576020820181803683370190505b509050600360fc1b81600081518110611ce857611ce8612ae9565b60200101906001600160f81b031916908160001a905350600f60fb1b81600181518110611d1757611d17612ae9565b60200101906001600160f81b031916908160001a9053506000611d3b846002612d36565b611d46906001612a18565b90505b6001811115611dbe576f181899199a1a9b1b9c1cb0b131b232b360811b85600f1660108110611d7a57611d7a612ae9565b1a60f81b828281518110611d9057611d90612ae9565b60200101906001600160f81b031916908160001a90535060049490941c93611db781612d55565b9050611d49565b508315610c695760405162461bcd60e51b815260206004820181905260248201527f537472696e67733a20686578206c656e67746820696e73756666696369656e74604482015260640161066c565b60008181526001830160205260408120548015611ef6576000611e31600183612c46565b8554909150600090611e4590600190612c46565b9050818114611eaa576000866000018281548110611e6557611e65612ae9565b9060005260206000200154905080876000018481548110611e8857611e88612ae9565b6000918252602080832090910192909255918252600188019052604090208390555b8554869080611ebb57611ebb612d6c565b600190038181906000526020600020016000905590558560010160008681526020019081526020016000206000905560019350505050610538565b6000915050610538565b6000806000611f0f85856120e9565b91509150611f1c81612159565b509392505050565b60006001600160e01b03198216637965db0b60e01b148061053857506301ffc9a760e01b6001600160e01b0319831614610538565b60006001611f6684610bb7565b611f709190612c46565b600083815260096020526040902054909150808214611fc3576001600160a01b03841660009081526008602090815260408083208584528252808320548484528184208190558352600990915290208190555b5060009182526009602090815260408084208490556001600160a01b039094168352600881528383209183525290812055565b600a5460009061200890600190612c46565b6000838152600b6020526040812054600a805493945090928490811061203057612030612ae9565b9060005260206000200154905080600a838154811061205157612051612ae9565b6000918252602080832090910192909255828152600b9091526040808220849055858252812055600a80548061208957612089612d6c565b6001900381819060005260206000200160009055905550505050565b60006120b083610bb7565b6001600160a01b039093166000908152600860209081526040808320868452825280832085905593825260099052919091209190915550565b6000808251604114156121205760208301516040840151606085015160001a61211487828585612314565b94509450505050612152565b82516040141561214a576020830151604084015161213f868383612401565b935093505050612152565b506000905060025b9250929050565b600081600481111561216d5761216d612d82565b14156121765750565b600181600481111561218a5761218a612d82565b14156121d85760405162461bcd60e51b815260206004820152601860248201527f45434453413a20696e76616c6964207369676e61747572650000000000000000604482015260640161066c565b60028160048111156121ec576121ec612d82565b141561223a5760405162461bcd60e51b815260206004820152601f60248201527f45434453413a20696e76616c6964207369676e6174757265206c656e67746800604482015260640161066c565b600381600481111561224e5761224e612d82565b14156122a75760405162461bcd60e51b815260206004820152602260248201527f45434453413a20696e76616c6964207369676e6174757265202773272076616c604482015261756560f01b606482015260840161066c565b60048160048111156122bb576122bb612d82565b1415610bb45760405162461bcd60e51b815260206004820152602260248201527f45434453413a20696e76616c6964207369676e6174757265202776272076616c604482015261756560f01b606482015260840161066c565b6000807f7fffffffffffffffffffffffffffffff5d576e7357a4501ddfe92f46681b20a083111561234b57506000905060036123f8565b8460ff16601b1415801561236357508460ff16601c14155b1561237457506000905060046123f8565b6040805160008082526020820180845289905260ff881692820192909252606081018690526080810185905260019060a0016020604051602081039080840390855afa1580156123c8573d6000803e3d6000fd5b5050604051601f1901519150506001600160a01b0381166123f1576000600192509250506123f8565b9150600090505b94509492505050565b6000806001600160ff1b0383168161241e60ff86901c601b612a18565b905061242c87828885612314565b935093505050935093915050565b828054612446906129c7565b90600052602060002090601f01602090048101928261246857600085556124ae565b82601f106124815782800160ff198235161785556124ae565b828001600101855582156124ae579182015b828111156124ae578235825591602001919060010190612493565b506124ba9291506124be565b5090565b5b808211156124ba57600081556001016124bf565b6001600160e01b031981168114610bb457600080fd5b6000602082840312156124fb57600080fd5b8135610c69816124d3565b60005b83811015612521578181015183820152602001612509565b83811115610d3b5750506000910152565b6000815180845261254a816020860160208601612506565b601f01601f19169290920160200192915050565b602081526000610c696020830184612532565b60006020828403121561258357600080fd5b5035919050565b80356001600160a01b03811681146125a157600080fd5b919050565b600080604083850312156125b957600080fd5b6125c28361258a565b946020939093013593505050565b60008083601f8401126125e257600080fd5b50813567ffffffffffffffff8111156125fa57600080fd5b60208301915083602082850101111561215257600080fd5b6000806000806040858703121561262857600080fd5b843567ffffffffffffffff8082111561264057600080fd5b61264c888389016125d0565b9096509450602087013591508082111561266557600080fd5b50612672878288016125d0565b95989497509550505050565b60008060006060848603121561269357600080fd5b61269c8461258a565b92506126aa6020850161258a565b9150604084013590509250925092565b600080604083850312156126cd57600080fd5b823591506126dd6020840161258a565b90509250929050565b600080602083850312156126f957600080fd5b823567ffffffffffffffff81111561271057600080fd5b61271c858286016125d0565b90969095509350505050565b6000806000806000806080878903121561274157600080fd5b863567ffffffffffffffff8082111561275957600080fd5b6127658a838b016125d0565b9098509650602089013591508082111561277e57600080fd5b5061278b89828a016125d0565b909550935061279e90506040880161258a565b9150606087013590509295509295509295565b6000602082840312156127c357600080fd5b610c698261258a565b600080604083850312156127df57600080fd5b50508035926020909101359150565b6000806040838503121561280157600080fd5b61280a8361258a565b91506020830135801515811461281f57600080fd5b809150509250929050565b60008060008060006060868803121561284257600080fd5b853567ffffffffffffffff8082111561285a57600080fd5b61286689838a016125d0565b9097509550602088013591508082111561287f57600080fd5b5061288c888289016125d0565b909450925061289f90506040870161258a565b90509295509295909350565b634e487b7160e01b600052604160045260246000fd5b600080600080608085870312156128d757600080fd5b6128e08561258a565b93506128ee6020860161258a565b925060408501359150606085013567ffffffffffffffff8082111561291257600080fd5b818701915087601f83011261292657600080fd5b813581811115612938576129386128ab565b604051601f8201601f19908116603f01168101908382118183101715612960576129606128ab565b816040528281528a602084870101111561297957600080fd5b82602086016020830137600060208483010152809550505050505092959194509250565b600080604083850312156129b057600080fd5b6129b98361258a565b91506126dd6020840161258a565b600181811c908216806129db57607f821691505b602082108114156129fc57634e487b7160e01b600052602260045260246000fd5b50919050565b634e487b7160e01b600052601160045260246000fd5b60008219821115612a2b57612a2b612a02565b500190565b81835281816020850137506000828201602090810191909152601f909101601f19169091010190565b606081526000612a6d606083018789612a30565b8281036020840152612a80818688612a30565b91505060018060a01b03831660408301529695505050505050565b6020808252602e908201527f4552433732313a2063616c6c6572206973206e6f7420746f6b656e206f776e6560408201526d1c881b9bdc88185c1c1c9bdd995960921b606082015260800190565b634e487b7160e01b600052603260045260246000fd5b60008451612b11818460208901612506565b845190830190612b25818360208901612506565b8451910190612b38818360208801612506565b0195945050505050565b608081526000612b56608083018789612a30565b6001600160a01b039586166020840152939094166040820152606001529392505050565b606081526000612b8e606083018688612a30565b6001600160a01b039485166020840152929093166040909101529392505050565b60208082526032908201527f4552433732313a207472616e7366657220746f206e6f6e20455243373231526560408201527131b2b4bb32b91034b6b83632b6b2b73a32b960711b606082015260800190565b6000600019821415612c1557612c15612a02565b5060010190565b634e487b7160e01b600052601260045260246000fd5b600082612c4157612c41612c1c565b500490565b600082821015612c5857612c58612a02565b500390565b600082612c6c57612c6c612c1c565b500690565b7f416363657373436f6e74726f6c3a206163636f756e7420000000000000000000815260008351612ca9816017850160208801612506565b7001034b99036b4b9b9b4b733903937b6329607d1b6017918401918201528351612cda816028840160208801612506565b01602801949350505050565b6001600160a01b0385811682528416602082015260408101839052608060608201819052600090610cff90830184612532565b600060208284031215612d2b57600080fd5b8151610c69816124d3565b6000816000190483118215151615612d5057612d50612a02565b500290565b600081612d6457612d64612a02565b506000190190565b634e487b7160e01b600052603160045260246000fd5b634e487b7160e01b600052602160045260246000fdfea2646970667358221220f2b09626666855b334ac54bcbd786aa2b521fcc8de01503c960e8c3e44d747b164736f6c63430008090033",
  "linkReferences": {},
  "deployedLinkReferences": {}
}