{
  "_format": "hh-sol-artifact-1",
  "contractName": "TitanLayers",
  "sourceName": "contracts/TitanLayers.sol",
  "abi": [
    {
      "inputs": [],
      "stateMutability": "nonpayable",
      "type": "constructor"
    },
    {
      "inputs": [
        {
          "internalType": "address",
          "name": "_address",
          "type": "address"
        }
      ],
      "name": "AddressAlreadyClaimed",
      "type": "error"
    },
    {
      "inputs": [
        {
          "internalType": "string",
          "name": "_salt",
          "type": "string"
        },
        {
          "internalType": "bytes",
          "name": "_signature",
          "type": "bytes"
        },
        {
          "internalType": "uint256",
          "name": "_tokenId",
          "type": "uint256"
        },
        {
          "internalType": "address",
          "name": "_caller",
          "type": "address"
        }
      ],
      "name": "InvalidSignature",
      "type": "error"
    },
    {
      "inputs": [
        {
          "internalType": "address",
          "name": "_caller",
          "type": "address"
        }
      ],
      "name": "PermissionDeniedCallerIsNotASigner",
      "type": "error"
    },
    {
      "inputs": [
        {
          "internalType": "address",
          "name": "_caller",
          "type": "address"
        }
      ],
      "name": "PermissionDeniedCallerIsNotATransferrer",
      "type": "error"
    },
    {
      "inputs": [
        {
          "internalType": "address",
          "name": "_caller",
          "type": "address"
        }
      ],
      "name": "PermissionDeniedCallerIsNotAnAdmin",
      "type": "error"
    },
    {
      "inputs": [
        {
          "internalType": "uint256",
          "name": "_tokenId",
          "type": "uint256"
        }
      ],
      "name": "TokenIDDoesNotExist",
      "type": "error"
    },
    {
      "anonymous": false,
      "inputs": [
        {
          "indexed": true,
          "internalType": "address",
          "name": "account",
          "type": "address"
        },
        {
          "indexed": true,
          "internalType": "address",
          "name": "operator",
          "type": "address"
        },
        {
          "indexed": false,
          "internalType": "bool",
          "name": "approved",
          "type": "bool"
        }
      ],
      "name": "ApprovalForAll",
      "type": "event"
    },
    {
      "anonymous": false,
      "inputs": [
        {
          "indexed": true,
          "internalType": "address",
          "name": "previousOwner",
          "type": "address"
        },
        {
          "indexed": true,
          "internalType": "address",
          "name": "newOwner",
          "type": "address"
        }
      ],
      "name": "OwnershipTransferred",
      "type": "event"
    },
    {
      "anonymous": false,
      "inputs": [
        {
          "indexed": true,
          "internalType": "bytes32",
          "name": "role",
          "type": "bytes32"
        },
        {
          "indexed": true,
          "internalType": "bytes32",
          "name": "previousAdminRole",
          "type": "bytes32"
        },
        {
          "indexed": true,
          "internalType": "bytes32",
          "name": "newAdminRole",
          "type": "bytes32"
        }
      ],
      "name": "RoleAdminChanged",
      "type": "event"
    },
    {
      "anonymous": false,
      "inputs": [
        {
          "indexed": true,
          "internalType": "bytes32",
          "name": "role",
          "type": "bytes32"
        },
        {
          "indexed": true,
          "internalType": "address",
          "name": "account",
          "type": "address"
        },
        {
          "indexed": true,
          "internalType": "address",
          "name": "sender",
          "type": "address"
        }
      ],
      "name": "RoleGranted",
      "type": "event"
    },
    {
      "anonymous": false,
      "inputs": [
        {
          "indexed": true,
          "internalType": "bytes32",
          "name": "role",
          "type": "bytes32"
        },
        {
          "indexed": true,
          "internalType": "address",
          "name": "account",
          "type": "address"
        },
        {
          "indexed": true,
          "internalType": "address",
          "name": "sender",
          "type": "address"
        }
      ],
      "name": "RoleRevoked",
      "type": "event"
    },
    {
      "anonymous": false,
      "inputs": [
        {
          "indexed": false,
          "internalType": "address",
          "name": "newSigner",
          "type": "address"
        }
      ],
      "name": "SignerUpdated",
      "type": "event"
    },
    {
      "anonymous": false,
      "inputs": [
        {
          "indexed": true,
          "internalType": "address",
          "name": "operator",
          "type": "address"
        },
        {
          "indexed": true,
          "internalType": "address",
          "name": "from",
          "type": "address"
        },
        {
          "indexed": true,
          "internalType": "address",
          "name": "to",
          "type": "address"
        },
        {
          "indexed": false,
          "internalType": "uint256[]",
          "name": "ids",
          "type": "uint256[]"
        },
        {
          "indexed": false,
          "internalType": "uint256[]",
          "name": "values",
          "type": "uint256[]"
        }
      ],
      "name": "TransferBatch",
      "type": "event"
    },
    {
      "anonymous": false,
      "inputs": [
        {
          "indexed": true,
          "internalType": "address",
          "name": "operator",
          "type": "address"
        },
        {
          "indexed": true,
          "internalType": "address",
          "name": "from",
          "type": "address"
        },
        {
          "indexed": true,
          "internalType": "address",
          "name": "to",
          "type": "address"
        },
        {
          "indexed": false,
          "internalType": "uint256",
          "name": "id",
          "type": "uint256"
        },
        {
          "indexed": false,
          "internalType": "uint256",
          "name": "value",
          "type": "uint256"
        }
      ],
      "name": "TransferSingle",
      "type": "event"
    },
    {
      "anonymous": false,
      "inputs": [
        {
          "indexed": false,
          "internalType": "string",
          "name": "value",
          "type": "string"
        },
        {
          "indexed": true,
          "internalType": "uint256",
          "name": "id",
          "type": "uint256"
        }
      ],
      "name": "URI",
      "type": "event"
    },
    {
      "anonymous": false,
      "inputs": [
        {
          "indexed": false,
          "internalType": "uint256",
          "name": "tokenID",
          "type": "uint256"
        },
        {
          "indexed": false,
          "internalType": "address",
          "name": "minterAddress",
          "type": "address"
        }
      ],
      "name": "tokenMinted",
      "type": "event"
    },
    {
      "inputs": [],
      "name": "DEFAULT_ADMIN_ROLE",
      "outputs": [
        {
          "internalType": "bytes32",
          "name": "",
          "type": "bytes32"
        }
      ],
      "stateMutability": "view",
      "type": "function"
    },
    {
      "inputs": [],
      "name": "SIGNER_ROLE",
      "outputs": [
        {
          "internalType": "bytes32",
          "name": "",
          "type": "bytes32"
        }
      ],
      "stateMutability": "view",
      "type": "function"
    },
    {
      "inputs": [],
      "name": "TRANSFER_ROLE",
      "outputs": [
        {
          "internalType": "bytes32",
          "name": "",
          "type": "bytes32"
        }
      ],
      "stateMutability": "view",
      "type": "function"
    },
    {
      "inputs": [
        {
          "internalType": "address",
          "name": "account",
          "type": "address"
        },
        {
          "internalType": "uint256",
          "name": "id",
          "type": "uint256"
        }
      ],
      "name": "balanceOf",
      "outputs": [
        {
          "internalType": "uint256",
          "name": "",
          "type": "uint256"
        }
      ],
      "stateMutability": "view",
      "type": "function"
    },
    {
      "inputs": [
        {
          "internalType": "address[]",
          "name": "accounts",
          "type": "address[]"
        },
        {
          "internalType": "uint256[]",
          "name": "ids",
          "type": "uint256[]"
        }
      ],
      "name": "balanceOfBatch",
      "outputs": [
        {
          "internalType": "uint256[]",
          "name": "",
          "type": "uint256[]"
        }
      ],
      "stateMutability": "view",
      "type": "function"
    },
    {
      "inputs": [
        {
          "internalType": "string",
          "name": "_salt",
          "type": "string"
        },
        {
          "internalType": "bytes",
          "name": "_signature",
          "type": "bytes"
        },
        {
          "internalType": "uint256",
          "name": "_tokenId",
          "type": "uint256"
        }
      ],
      "name": "claim",
      "outputs": [],
      "stateMutability": "nonpayable",
      "type": "function"
    },
    {
      "inputs": [
        {
          "internalType": "address",
          "name": "",
          "type": "address"
        },
        {
          "internalType": "uint256",
          "name": "",
          "type": "uint256"
        }
      ],
      "name": "claimedNFT",
      "outputs": [
        {
          "internalType": "bool",
          "name": "",
          "type": "bool"
        }
      ],
      "stateMutability": "view",
      "type": "function"
    },
    {
      "inputs": [
        {
          "internalType": "bytes32",
          "name": "role",
          "type": "bytes32"
        }
      ],
      "name": "getRoleAdmin",
      "outputs": [
        {
          "internalType": "bytes32",
          "name": "",
          "type": "bytes32"
        }
      ],
      "stateMutability": "view",
      "type": "function"
    },
    {
      "inputs": [
        {
          "internalType": "bytes32",
          "name": "role",
          "type": "bytes32"
        },
        {
          "internalType": "uint256",
          "name": "index",
          "type": "uint256"
        }
      ],
      "name": "getRoleMember",
      "outputs": [
        {
          "internalType": "address",
          "name": "",
          "type": "address"
        }
      ],
      "stateMutability": "view",
      "type": "function"
    },
    {
      "inputs": [
        {
          "internalType": "bytes32",
          "name": "role",
          "type": "bytes32"
        }
      ],
      "name": "getRoleMemberCount",
      "outputs": [
        {
          "internalType": "uint256",
          "name": "",
          "type": "uint256"
        }
      ],
      "stateMutability": "view",
      "type": "function"
    },
    {
      "inputs": [
        {
          "internalType": "bytes32",
          "name": "role",
          "type": "bytes32"
        },
        {
          "internalType": "address",
          "name": "account",
          "type": "address"
        }
      ],
      "name": "grantRole",
      "outputs": [],
      "stateMutability": "nonpayable",
      "type": "function"
    },
    {
      "inputs": [
        {
          "internalType": "bytes32",
          "name": "role",
          "type": "bytes32"
        },
        {
          "internalType": "address",
          "name": "account",
          "type": "address"
        }
      ],
      "name": "hasRole",
      "outputs": [
        {
          "internalType": "bool",
          "name": "",
          "type": "bool"
        }
      ],
      "stateMutability": "view",
      "type": "function"
    },
    {
      "inputs": [
        {
          "internalType": "address",
          "name": "account",
          "type": "address"
        },
        {
          "internalType": "address",
          "name": "operator",
          "type": "address"
        }
      ],
      "name": "isApprovedForAll",
      "outputs": [
        {
          "internalType": "bool",
          "name": "",
          "type": "bool"
        }
      ],
      "stateMutability": "view",
      "type": "function"
    },
    {
      "inputs": [],
      "name": "name",
      "outputs": [
        {
          "internalType": "string",
          "name": "",
          "type": "string"
        }
      ],
      "stateMutability": "pure",
      "type": "function"
    },
    {
      "inputs": [],
      "name": "owner",
      "outputs": [
        {
          "internalType": "address",
          "name": "",
          "type": "address"
        }
      ],
      "stateMutability": "view",
      "type": "function"
    },
    {
      "inputs": [],
      "name": "renounceOwnership",
      "outputs": [],
      "stateMutability": "nonpayable",
      "type": "function"
    },
    {
      "inputs": [
        {
          "internalType": "bytes32",
          "name": "role",
          "type": "bytes32"
        },
        {
          "internalType": "address",
          "name": "account",
          "type": "address"
        }
      ],
      "name": "renounceRole",
      "outputs": [],
      "stateMutability": "nonpayable",
      "type": "function"
    },
    {
      "inputs": [
        {
          "internalType": "bytes32",
          "name": "role",
          "type": "bytes32"
        },
        {
          "internalType": "address",
          "name": "account",
          "type": "address"
        }
      ],
      "name": "revokeRole",
      "outputs": [],
      "stateMutability": "nonpayable",
      "type": "function"
    },
    {
      "inputs": [
        {
          "internalType": "address",
          "name": "from",
          "type": "address"
        },
        {
          "internalType": "address",
          "name": "to",
          "type": "address"
        },
        {
          "internalType": "uint256[]",
          "name": "ids",
          "type": "uint256[]"
        },
        {
          "internalType": "uint256[]",
          "name": "amounts",
          "type": "uint256[]"
        },
        {
          "internalType": "bytes",
          "name": "data",
          "type": "bytes"
        }
      ],
      "name": "safeBatchTransferFrom",
      "outputs": [],
      "stateMutability": "nonpayable",
      "type": "function"
    },
    {
      "inputs": [
        {
          "internalType": "address",
          "name": "from",
          "type": "address"
        },
        {
          "internalType": "address",
          "name": "to",
          "type": "address"
        },
        {
          "internalType": "uint256",
          "name": "id",
          "type": "uint256"
        },
        {
          "internalType": "uint256",
          "name": "amount",
          "type": "uint256"
        },
        {
          "internalType": "bytes",
          "name": "data",
          "type": "bytes"
        }
      ],
      "name": "safeTransferFrom",
      "outputs": [],
      "stateMutability": "nonpayable",
      "type": "function"
    },
    {
      "inputs": [
        {
          "internalType": "address",
          "name": "operator",
          "type": "address"
        },
        {
          "internalType": "bool",
          "name": "approved",
          "type": "bool"
        }
      ],
      "name": "setApprovalForAll",
      "outputs": [],
      "stateMutability": "nonpayable",
      "type": "function"
    },
    {
      "inputs": [
        {
          "internalType": "string",
          "name": "_newURI",
          "type": "string"
        }
      ],
      "name": "setBaseURI",
      "outputs": [],
      "stateMutability": "nonpayable",
      "type": "function"
    },
    {
      "inputs": [
        {
          "internalType": "address",
          "name": "_newSigner",
          "type": "address"
        }
      ],
      "name": "setSigner",
      "outputs": [],
      "stateMutability": "nonpayable",
      "type": "function"
    },
    {
      "inputs": [
        {
          "internalType": "uint256",
          "name": "tokenId",
          "type": "uint256"
        },
        {
          "internalType": "string",
          "name": "_newURI",
          "type": "string"
        }
      ],
      "name": "setTokenURI",
      "outputs": [],
      "stateMutability": "nonpayable",
      "type": "function"
    },
    {
      "inputs": [
        {
          "internalType": "bytes4",
          "name": "interfaceId",
          "type": "bytes4"
        }
      ],
      "name": "supportsInterface",
      "outputs": [
        {
          "internalType": "bool",
          "name": "",
          "type": "bool"
        }
      ],
      "stateMutability": "view",
      "type": "function"
    },
    {
      "inputs": [],
      "name": "symbol",
      "outputs": [
        {
          "internalType": "string",
          "name": "",
          "type": "string"
        }
      ],
      "stateMutability": "pure",
      "type": "function"
    },
    {
      "inputs": [
        {
          "internalType": "address",
          "name": "newOwner",
          "type": "address"
        }
      ],
      "name": "transferOwnership",
      "outputs": [],
      "stateMutability": "nonpayable",
      "type": "function"
    },
    {
      "inputs": [
        {
          "internalType": "uint256",
          "name": "tokenId",
          "type": "uint256"
        }
      ],
      "name": "uri",
      "outputs": [
        {
          "internalType": "string",
          "name": "",
          "type": "string"
        }
      ],
      "stateMutability": "view",
      "type": "function"
    },
    {
      "inputs": [
        {
          "internalType": "string",
          "name": "_salt",
          "type": "string"
        },
        {
          "internalType": "bytes",
          "name": "_token",
          "type": "bytes"
        },
        {
          "internalType": "address",
          "name": "_address",
          "type": "address"
        },
        {
          "internalType": "uint256",
          "name": "_tokenId",
          "type": "uint256"
        }
      ],
      "name": "verifyTokenForAddress",
      "outputs": [
        {
          "internalType": "bool",
          "name": "",
          "type": "bool"
        }
      ],
      "stateMutability": "view",
      "type": "function"
    },
    {
      "inputs": [
        {
          "internalType": "string",
          "name": "_salt",
          "type": "string"
        },
        {
          "internalType": "bytes",
          "name": "_token",
          "type": "bytes"
        },
        {
          "internalType": "address",
          "name": "_address",
          "type": "address"
        }
      ],
      "name": "verifyTokenForAddress",
      "outputs": [
        {
          "internalType": "bool",
          "name": "",
          "type": "bool"
        }
      ],
      "stateMutability": "view",
      "type": "function"
    }
  ],
  "bytecode": "0x60a06040819052600060808190526200001b9160059162000281565b503480156200002957600080fd5b506040805160208101909152600081526200004481620000bb565b506200005033620000d4565b6200005d60003362000126565b620000897fe2f4eaae4a9751e85a3e4a7b9587827a877f29914755229b07a7b2da98285f703362000126565b620000b57f8502233096d909befbda0999bb8ea2f3a6be3c138b9fbf003752a4c8bce86f6c3362000126565b62000364565b8051620000d090600490602084019062000281565b5050565b600780546001600160a01b038381166001600160a01b0319831681179093556040519116919082907f8be0079c531659141344cd1fd0a4f28419497f9722a3daafe3b4186f6b6457e090600090a35050565b620000d082826200014382826200016f60201b62000caf1760201c565b60008281526001602090815260409091206200016a91839062000d336200020f821b17901c565b505050565b6000828152602081815260408083206001600160a01b038516845290915290205460ff16620000d0576000828152602081815260408083206001600160a01b03851684529091529020805460ff19166001179055620001cb3390565b6001600160a01b0316816001600160a01b0316837f2f8788117e7eff1d82e926ec794901d17c78024a50270940304540a733656f0d60405160405180910390a45050565b600062000226836001600160a01b0384166200022f565b90505b92915050565b6000818152600183016020526040812054620002785750815460018181018455600084815260208082209093018490558454848252828601909352604090209190915562000229565b50600062000229565b8280546200028f9062000327565b90600052602060002090601f016020900481019282620002b35760008555620002fe565b82601f10620002ce57805160ff1916838001178555620002fe565b82800160010185558215620002fe579182015b82811115620002fe578251825591602001919060010190620002e1565b506200030c92915062000310565b5090565b5b808211156200030c576000815560010162000311565b600181811c908216806200033c57607f821691505b602082108114156200035e57634e487b7160e01b600052602260045260246000fd5b50919050565b612ed980620003746000396000f3fe608060405234801561001057600080fd5b50600436106101d95760003560e01c8063715018a611610104578063a217fddf116100a2578063d547741f11610071578063d547741f1461047d578063e985e9c514610490578063f242432a146104cc578063f2fde38b146104df57600080fd5b8063a217fddf1461043c578063a22cb46514610444578063a34932db14610457578063ca15c8731461046a57600080fd5b806391d14854116100de57806391d14854146103b557806395d89b41146103c85780639d16bb74146103e7578063a1ebf35d1461041557600080fd5b8063715018a6146103755780638da5cb5b1461037d5780639010d07c146103a257600080fd5b8063248a9ca31161017c5780634e1273f41161014b5780634e1273f41461031c57806355f804b31461033c578063614c972b1461034f5780636c19e7831461036257600080fd5b8063248a9ca3146102c05780632eb2c2d6146102e35780632f2ff15d146102f657806336568abe1461030957600080fd5b80630e89341c116101b85780630e89341c1461025e578063162094c4146102715780631a9279ec14610286578063206b60f91461029957600080fd5b8062fdd58e146101de57806301ffc9a71461020457806306fdde0314610227575b600080fd5b6101f16101ec366004612168565b6104f2565b6040519081526020015b60405180910390f35b6102176102123660046121a8565b61058d565b60405190151581526020016101fb565b6040805180820190915260128152714b4f494f5320546974616e204c617965727360701b60208201525b6040516101fb9190612221565b61025161026c366004612234565b610598565b61028461027f36600461228e565b610678565b005b6102846102943660046122d9565b6106f3565b6101f17f8502233096d909befbda0999bb8ea2f3a6be3c138b9fbf003752a4c8bce86f6c81565b6101f16102ce366004612234565b60009081526020819052604090206001015490565b6102846102f1366004612495565b6107e9565b61028461030436600461253e565b610835565b61028461031736600461253e565b61085a565b61032f61032a36600461256a565b6108d8565b6040516101fb919061266f565b61028461034a366004612682565b610a01565b61021761035d3660046126c3565b610a55565b61028461037036600461274b565b610aad565b610284610b02565b6007546001600160a01b03165b6040516001600160a01b0390911681526020016101fb565b61038a6103b0366004612766565b610b16565b6102176103c336600461253e565b610b2e565b60408051808201909152600381526215105360ea1b6020820152610251565b6102176103f5366004612168565b600960209081526000928352604080842090915290825290205460ff1681565b6101f17fe2f4eaae4a9751e85a3e4a7b9587827a877f29914755229b07a7b2da98285f7081565b6101f1600081565b610284610452366004612788565b610b57565b6102176104653660046127c4565b610b62565b6101f1610478366004612234565b610bb8565b61028461048b36600461253e565b610bcf565b61021761049e366004612844565b6001600160a01b03918216600090815260036020908152604080832093909416825291909152205460ff1690565b6102846104da36600461286e565b610bf4565b6102846104ed36600461274b565b610c39565b60006001600160a01b0383166105625760405162461bcd60e51b815260206004820152602a60248201527f455243313135353a2061646472657373207a65726f206973206e6f742061207660448201526930b634b21037bbb732b960b11b60648201526084015b60405180910390fd5b5060008181526002602090815260408083206001600160a01b03861684529091529020545b92915050565b600061058782610d48565b6000818152600660205260408120805460609291906105b6906128d2565b80601f01602080910402602001604051908101604052809291908181526020018280546105e2906128d2565b801561062f5780601f106106045761010080835404028352916020019161062f565b820191906000526020600020905b81548152906001019060200180831161061257829003601f168201915b50505050509050600081511161064d5761064883610d88565b610671565b600581604051602001610661929190612929565b6040516020818303038152906040525b9392505050565b610683600033610b2e565b6106ae57335b604051637baec9b560e01b81526001600160a01b039091166004820152602401610559565b6106ee8383838080601f016020809104026020016040519081016040528093929190818152602001838380828437600092019190915250610e1c92505050565b505050565b33600090815260096020908152604080832084845290915290205460ff16156107315760405163096238d760e31b8152336004820152602401610559565b61073f858585853386610a55565b6107685784848484843360405163409295d760e11b8152600401610559969594939291906129f9565b6107843382600160405180602001604052806000815250610e80565b336000818152600960209081526040808320858452825291829020805460ff1916600117905581518481529081019290925280517f55d785d3e2a7effd275e725eb0fd1a1457366d1d3709f9bb61cd2d83913fdb839281900390910190a15050505050565b6001600160a01b0385163314806108055750610805853361049e565b6108215760405162461bcd60e51b815260040161055990612a44565b61082e8585858585610fa5565b5050505050565b60008281526020819052604090206001015461085081611193565b6106ee838361119d565b6001600160a01b03811633146108ca5760405162461bcd60e51b815260206004820152602f60248201527f416363657373436f6e74726f6c3a2063616e206f6e6c792072656e6f756e636560448201526e103937b632b9903337b91039b2b63360891b6064820152608401610559565b6108d482826111bf565b5050565b6060815183511461093d5760405162461bcd60e51b815260206004820152602960248201527f455243313135353a206163636f756e747320616e6420696473206c656e677468604482015268040dad2e6dac2e8c6d60bb1b6064820152608401610559565b600083516001600160401b038111156109585761095861234c565b604051908082528060200260200182016040528015610981578160200160208202803683370190505b50905060005b84518110156109f9576109cc8582815181106109a5576109a5612a93565b60200260200101518583815181106109bf576109bf612a93565b60200260200101516104f2565b8282815181106109de576109de612a93565b60209081029190910101526109f281612abf565b9050610987565b509392505050565b610a0c600033610b2e565b610a165733610689565b6108d482828080601f0160208091040260200160405190810160405280939291908181526020018383808284376000920191909152506111e192505050565b6000610aa2610a66888885876111f4565b86868080601f01602080910402602001604051908101604052809392919081815260200183838082843760009201919091525061122f92505050565b979650505050505050565b610ad77fe2f4eaae4a9751e85a3e4a7b9587827a877f29914755229b07a7b2da98285f7033610b2e565b610af657604051636de9f12160e01b8152336004820152602401610559565b610aff81611259565b50565b610b0a6112ad565b610b146000611307565b565b60008281526001602052604081206106719083611359565b6000918252602082815260408084206001600160a01b0393909316845291905290205460ff1690565b6108d4338383611365565b6000610bae610b72878785611446565b85858080601f01602080910402602001604051908101604052809392919081815260200183838082843760009201919091525061122f92505050565b9695505050505050565b60008181526001602052604081206105879061147e565b600082815260208190526040902060010154610bea81611193565b6106ee83836111bf565b6001600160a01b038516331480610c105750610c10853361049e565b610c2c5760405162461bcd60e51b815260040161055990612a44565b61082e8585858585611488565b610c416112ad565b6001600160a01b038116610ca65760405162461bcd60e51b815260206004820152602660248201527f4f776e61626c653a206e6577206f776e657220697320746865207a65726f206160448201526564647265737360d01b6064820152608401610559565b610aff81611307565b610cb98282610b2e565b6108d4576000828152602081815260408083206001600160a01b03851684529091529020805460ff19166001179055610cef3390565b6001600160a01b0316816001600160a01b0316837f2f8788117e7eff1d82e926ec794901d17c78024a50270940304540a733656f0d60405160405180910390a45050565b6000610671836001600160a01b0384166115c4565b60006001600160e01b03198216636cdb3d1360e11b1480610d7957506001600160e01b031982166303a24d0760e21b145b80610587575061058782611613565b606060048054610d97906128d2565b80601f0160208091040260200160405190810160405280929190818152602001828054610dc3906128d2565b8015610e105780601f10610de557610100808354040283529160200191610e10565b820191906000526020600020905b815481529060010190602001808311610df357829003601f168201915b50505050509050919050565b60008281526006602090815260409091208251610e3b928401906120b3565b50817f6bb7ff708619ba0610cba295a58592e0451dee2622938c8755667688daf3529b610e6784610598565b604051610e749190612221565b60405180910390a25050565b6001600160a01b038416610ee05760405162461bcd60e51b815260206004820152602160248201527f455243313135353a206d696e7420746f20746865207a65726f206164647265736044820152607360f81b6064820152608401610559565b336000610eec85611638565b90506000610ef985611638565b9050610f0a83600089858589611683565b60008681526002602090815260408083206001600160a01b038b16845290915281208054879290610f3c908490612ada565b909155505060408051878152602081018790526001600160a01b03808a1692600092918716917fc3d58168c5ae7397731d063d5bbf3d657854427343f4c083240f7aacaa2d0f62910160405180910390a4610f9c836000898989896116e3565b50505050505050565b81518351146110075760405162461bcd60e51b815260206004820152602860248201527f455243313135353a2069647320616e6420616d6f756e7473206c656e677468206044820152670dad2e6dac2e8c6d60c31b6064820152608401610559565b6001600160a01b03841661102d5760405162461bcd60e51b815260040161055990612af2565b3361103c818787878787611683565b60005b845181101561112557600085828151811061105c5761105c612a93565b60200260200101519050600085838151811061107a5761107a612a93565b60209081029190910181015160008481526002835260408082206001600160a01b038e1683529093529190912054909150818110156110cb5760405162461bcd60e51b815260040161055990612b37565b60008381526002602090815260408083206001600160a01b038e8116855292528083208585039055908b1682528120805484929061110a908490612ada565b925050819055505050508061111e90612abf565b905061103f565b50846001600160a01b0316866001600160a01b0316826001600160a01b03167f4a39dc06d4c0dbc64b70af90fd698a233a518aa5d07e595d983b8c0526c8f7fb8787604051611175929190612b81565b60405180910390a461118b81878787878761184e565b505050505050565b610aff8133611918565b6111a78282610caf565b60008281526001602052604090206106ee9082610d33565b6111c9828261197c565b60008281526001602052604090206106ee90826119e1565b80516108d49060059060208401906120b3565b6000848430848660405160200161120f959493929190612ba6565b604051602081830303815290604052805190602001209050949350505050565b6008546000906001600160a01b031661124884846119f6565b6001600160a01b0316149392505050565b600880546001600160a01b0319166001600160a01b0383169081179091556040519081527f5553331329228fbd4123164423717a4a7539f6dfa1c3279a923b98fd681a6c739060200160405180910390a150565b6007546001600160a01b03163314610b145760405162461bcd60e51b815260206004820181905260248201527f4f776e61626c653a2063616c6c6572206973206e6f7420746865206f776e65726044820152606401610559565b600780546001600160a01b038381166001600160a01b0319831681179093556040519116919082907f8be0079c531659141344cd1fd0a4f28419497f9722a3daafe3b4186f6b6457e090600090a35050565b60006106718383611a59565b816001600160a01b0316836001600160a01b031614156113d95760405162461bcd60e51b815260206004820152602960248201527f455243313135353a2073657474696e6720617070726f76616c20737461747573604482015268103337b91039b2b63360b91b6064820152608401610559565b6001600160a01b03838116600081815260036020908152604080832094871680845294825291829020805460ff191686151590811790915591519182527f17307eab39ab6107e8899845ad3d59bd9653f200f220920489ca2b5937696c31910160405180910390a3505050565b60008383308460405160200161145f9493929190612bde565b6040516020818303038152906040528051906020012090509392505050565b6000610587825490565b6001600160a01b0384166114ae5760405162461bcd60e51b815260040161055990612af2565b3360006114ba85611638565b905060006114c785611638565b90506114d7838989858589611683565b60008681526002602090815260408083206001600160a01b038c1684529091529020548581101561151a5760405162461bcd60e51b815260040161055990612b37565b60008781526002602090815260408083206001600160a01b038d8116855292528083208985039055908a16825281208054889290611559908490612ada565b909155505060408051888152602081018890526001600160a01b03808b16928c821692918816917fc3d58168c5ae7397731d063d5bbf3d657854427343f4c083240f7aacaa2d0f62910160405180910390a46115b9848a8a8a8a8a6116e3565b505050505050505050565b600081815260018301602052604081205461160b57508154600181810184556000848152602080822090930184905584548482528286019093526040902091909155610587565b506000610587565b60006001600160e01b03198216635a05180f60e01b1480610587575061058782611a83565b6040805160018082528183019092526060916000919060208083019080368337019050509050828160008151811061167257611672612a93565b602090810291909101015292915050565b6001600160a01b03851615806116be57506116be7f8502233096d909befbda0999bb8ea2f3a6be3c138b9fbf003752a4c8bce86f6c33610b2e565b156116c85761118b565b60405163972c74c760e01b8152336004820152602401610559565b6001600160a01b0384163b1561118b5760405163f23a6e6160e01b81526001600160a01b0385169063f23a6e61906117279089908990889088908890600401612c13565b602060405180830381600087803b15801561174157600080fd5b505af1925050508015611771575060408051601f3d908101601f1916820190925261176e91810190612c4d565b60015b61181e5761177d612c6a565b806308c379a014156117b75750611792612c86565b8061179d57506117b9565b8060405162461bcd60e51b81526004016105599190612221565b505b60405162461bcd60e51b815260206004820152603460248201527f455243313135353a207472616e7366657220746f206e6f6e20455243313135356044820152732932b1b2b4bb32b91034b6b83632b6b2b73a32b960611b6064820152608401610559565b6001600160e01b0319811663f23a6e6160e01b14610f9c5760405162461bcd60e51b815260040161055990612d0f565b6001600160a01b0384163b1561118b5760405163bc197c8160e01b81526001600160a01b0385169063bc197c81906118929089908990889088908890600401612d57565b602060405180830381600087803b1580156118ac57600080fd5b505af19250505080156118dc575060408051601f3d908101601f191682019092526118d991810190612c4d565b60015b6118e85761177d612c6a565b6001600160e01b0319811663bc197c8160e01b14610f9c5760405162461bcd60e51b815260040161055990612d0f565b6119228282610b2e565b6108d45761193a816001600160a01b03166014611ab8565b611945836020611ab8565b604051602001611956929190612db5565b60408051601f198184030181529082905262461bcd60e51b825261055991600401612221565b6119868282610b2e565b156108d4576000828152602081815260408083206001600160a01b0385168085529252808320805460ff1916905551339285917ff6391f5c32d9c69d2a47ea670b442974b53935d1edc7fd64eb21e047a839171b9190a45050565b6000610671836001600160a01b038416611c53565b600061067182611a53856040517f19457468657265756d205369676e6564204d6573736167653a0a3332000000006020820152603c8101829052600090605c01604051602081830303815290604052805190602001209050919050565b90611d46565b6000826000018281548110611a7057611a70612a93565b9060005260206000200154905092915050565b60006001600160e01b03198216637965db0b60e01b148061058757506301ffc9a760e01b6001600160e01b0319831614610587565b60606000611ac7836002612e2a565b611ad2906002612ada565b6001600160401b03811115611ae957611ae961234c565b6040519080825280601f01601f191660200182016040528015611b13576020820181803683370190505b509050600360fc1b81600081518110611b2e57611b2e612a93565b60200101906001600160f81b031916908160001a905350600f60fb1b81600181518110611b5d57611b5d612a93565b60200101906001600160f81b031916908160001a9053506000611b81846002612e2a565b611b8c906001612ada565b90505b6001811115611c04576f181899199a1a9b1b9c1cb0b131b232b360811b85600f1660108110611bc057611bc0612a93565b1a60f81b828281518110611bd657611bd6612a93565b60200101906001600160f81b031916908160001a90535060049490941c93611bfd81612e49565b9050611b8f565b5083156106715760405162461bcd60e51b815260206004820181905260248201527f537472696e67733a20686578206c656e67746820696e73756666696369656e746044820152606401610559565b60008181526001830160205260408120548015611d3c576000611c77600183612e60565b8554909150600090611c8b90600190612e60565b9050818114611cf0576000866000018281548110611cab57611cab612a93565b9060005260206000200154905080876000018481548110611cce57611cce612a93565b6000918252602080832090910192909255918252600188019052604090208390555b8554869080611d0157611d01612e77565b600190038181906000526020600020016000905590558560010160008681526020019081526020016000206000905560019350505050610587565b6000915050610587565b6000806000611d558585611d62565b915091506109f981611dd2565b600080825160411415611d995760208301516040840151606085015160001a611d8d87828585611f8d565b94509450505050611dcb565b825160401415611dc35760208301516040840151611db886838361207a565b935093505050611dcb565b506000905060025b9250929050565b6000816004811115611de657611de6612e8d565b1415611def5750565b6001816004811115611e0357611e03612e8d565b1415611e515760405162461bcd60e51b815260206004820152601860248201527f45434453413a20696e76616c6964207369676e617475726500000000000000006044820152606401610559565b6002816004811115611e6557611e65612e8d565b1415611eb35760405162461bcd60e51b815260206004820152601f60248201527f45434453413a20696e76616c6964207369676e6174757265206c656e677468006044820152606401610559565b6003816004811115611ec757611ec7612e8d565b1415611f205760405162461bcd60e51b815260206004820152602260248201527f45434453413a20696e76616c6964207369676e6174757265202773272076616c604482015261756560f01b6064820152608401610559565b6004816004811115611f3457611f34612e8d565b1415610aff5760405162461bcd60e51b815260206004820152602260248201527f45434453413a20696e76616c6964207369676e6174757265202776272076616c604482015261756560f01b6064820152608401610559565b6000807f7fffffffffffffffffffffffffffffff5d576e7357a4501ddfe92f46681b20a0831115611fc45750600090506003612071565b8460ff16601b14158015611fdc57508460ff16601c14155b15611fed5750600090506004612071565b6040805160008082526020820180845289905260ff881692820192909252606081018690526080810185905260019060a0016020604051602081039080840390855afa158015612041573d6000803e3d6000fd5b5050604051601f1901519150506001600160a01b03811661206a57600060019250925050612071565b9150600090505b94509492505050565b6000806001600160ff1b0383168161209760ff86901c601b612ada565b90506120a587828885611f8d565b935093505050935093915050565b8280546120bf906128d2565b90600052602060002090601f0160209004810192826120e15760008555612127565b82601f106120fa57805160ff1916838001178555612127565b82800160010185558215612127579182015b8281111561212757825182559160200191906001019061210c565b50612133929150612137565b5090565b5b808211156121335760008155600101612138565b80356001600160a01b038116811461216357600080fd5b919050565b6000806040838503121561217b57600080fd5b6121848361214c565b946020939093013593505050565b6001600160e01b031981168114610aff57600080fd5b6000602082840312156121ba57600080fd5b813561067181612192565b60005b838110156121e05781810151838201526020016121c8565b838111156121ef576000848401525b50505050565b6000815180845261220d8160208601602086016121c5565b601f01601f19169290920160200192915050565b60208152600061067160208301846121f5565b60006020828403121561224657600080fd5b5035919050565b60008083601f84011261225f57600080fd5b5081356001600160401b0381111561227657600080fd5b602083019150836020828501011115611dcb57600080fd5b6000806000604084860312156122a357600080fd5b8335925060208401356001600160401b038111156122c057600080fd5b6122cc8682870161224d565b9497909650939450505050565b6000806000806000606086880312156122f157600080fd5b85356001600160401b038082111561230857600080fd5b61231489838a0161224d565b9097509550602088013591508082111561232d57600080fd5b5061233a8882890161224d565b96999598509660400135949350505050565b634e487b7160e01b600052604160045260246000fd5b601f8201601f191681016001600160401b03811182821017156123875761238761234c565b6040525050565b60006001600160401b038211156123a7576123a761234c565b5060051b60200190565b600082601f8301126123c257600080fd5b813560206123cf8261238e565b6040516123dc8282612362565b83815260059390931b85018201928281019150868411156123fc57600080fd5b8286015b848110156124175780358352918301918301612400565b509695505050505050565b600082601f83011261243357600080fd5b81356001600160401b0381111561244c5761244c61234c565b604051612463601f8301601f191660200182612362565b81815284602083860101111561247857600080fd5b816020850160208301376000918101602001919091529392505050565b600080600080600060a086880312156124ad57600080fd5b6124b68661214c565b94506124c46020870161214c565b935060408601356001600160401b03808211156124e057600080fd5b6124ec89838a016123b1565b9450606088013591508082111561250257600080fd5b61250e89838a016123b1565b9350608088013591508082111561252457600080fd5b5061253188828901612422565b9150509295509295909350565b6000806040838503121561255157600080fd5b823591506125616020840161214c565b90509250929050565b6000806040838503121561257d57600080fd5b82356001600160401b038082111561259457600080fd5b818501915085601f8301126125a857600080fd5b813560206125b58261238e565b6040516125c28282612362565b83815260059390931b85018201928281019150898411156125e257600080fd5b948201945b83861015612607576125f88661214c565b825294820194908201906125e7565b9650508601359250508082111561261d57600080fd5b5061262a858286016123b1565b9150509250929050565b600081518084526020808501945080840160005b8381101561266457815187529582019590820190600101612648565b509495945050505050565b6020815260006106716020830184612634565b6000806020838503121561269557600080fd5b82356001600160401b038111156126ab57600080fd5b6126b78582860161224d565b90969095509350505050565b600080600080600080608087890312156126dc57600080fd5b86356001600160401b03808211156126f357600080fd5b6126ff8a838b0161224d565b9098509650602089013591508082111561271857600080fd5b5061272589828a0161224d565b909550935061273890506040880161214c565b9150606087013590509295509295509295565b60006020828403121561275d57600080fd5b6106718261214c565b6000806040838503121561277957600080fd5b50508035926020909101359150565b6000806040838503121561279b57600080fd5b6127a48361214c565b9150602083013580151581146127b957600080fd5b809150509250929050565b6000806000806000606086880312156127dc57600080fd5b85356001600160401b03808211156127f357600080fd5b6127ff89838a0161224d565b9097509550602088013591508082111561281857600080fd5b506128258882890161224d565b909450925061283890506040870161214c565b90509295509295909350565b6000806040838503121561285757600080fd5b6128608361214c565b91506125616020840161214c565b600080600080600060a0868803121561288657600080fd5b61288f8661214c565b945061289d6020870161214c565b9350604086013592506060860135915060808601356001600160401b038111156128c657600080fd5b61253188828901612422565b600181811c908216806128e657607f821691505b6020821081141561290757634e487b7160e01b600052602260045260246000fd5b50919050565b6000815161291f8185602086016121c5565b9290920192915050565b600080845481600182811c91508083168061294557607f831692505b602080841082141561296557634e487b7160e01b86526022600452602486fd5b818015612979576001811461298a576129b7565b60ff198616895284890196506129b7565b60008b81526020902060005b868110156129af5781548b820152908501908301612996565b505084890196505b5050505050506129c7818561290d565b95945050505050565b81835281816020850137506000828201602090810191909152601f909101601f19169091010190565b608081526000612a0d60808301888a6129d0565b8281036020840152612a208187896129d0565b604084019590955250506001600160a01b0391909116606090910152949350505050565b6020808252602f908201527f455243313135353a2063616c6c6572206973206e6f7420746f6b656e206f776e60408201526e195c881b9bdc88185c1c1c9bdd9959608a1b606082015260800190565b634e487b7160e01b600052603260045260246000fd5b634e487b7160e01b600052601160045260246000fd5b6000600019821415612ad357612ad3612aa9565b5060010190565b60008219821115612aed57612aed612aa9565b500190565b60208082526025908201527f455243313135353a207472616e7366657220746f20746865207a65726f206164604082015264647265737360d81b606082015260800190565b6020808252602a908201527f455243313135353a20696e73756666696369656e742062616c616e636520666f60408201526939103a3930b739b332b960b11b606082015260800190565b604081526000612b946040830185612634565b82810360208401526129c78185612634565b608081526000612bba6080830187896129d0565b6001600160a01b039586166020840152939094166040820152606001529392505050565b606081526000612bf26060830186886129d0565b6001600160a01b039485166020840152929093166040909101529392505050565b6001600160a01b03868116825285166020820152604081018490526060810183905260a060808201819052600090610aa2908301846121f5565b600060208284031215612c5f57600080fd5b815161067181612192565b600060033d1115612c835760046000803e5060005160e01c5b90565b600060443d1015612c945790565b6040516003193d81016004833e81513d6001600160401b038160248401118184111715612cc357505050505090565b8285019150815181811115612cdb5750505050505090565b843d8701016020828501011115612cf55750505050505090565b612d0460208286010187612362565b509095945050505050565b60208082526028908201527f455243313135353a204552433131353552656365697665722072656a656374656040820152676420746f6b656e7360c01b606082015260800190565b6001600160a01b0386811682528516602082015260a060408201819052600090612d8390830186612634565b8281036060840152612d958186612634565b90508281036080840152612da981856121f5565b98975050505050505050565b7f416363657373436f6e74726f6c3a206163636f756e7420000000000000000000815260008351612ded8160178501602088016121c5565b7001034b99036b4b9b9b4b733903937b6329607d1b6017918401918201528351612e1e8160288401602088016121c5565b01602801949350505050565b6000816000190483118215151615612e4457612e44612aa9565b500290565b600081612e5857612e58612aa9565b506000190190565b600082821015612e7257612e72612aa9565b500390565b634e487b7160e01b600052603160045260246000fd5b634e487b7160e01b600052602160045260246000fdfea2646970667358221220bded233b66a479bb85eb1b1ea61553e00088d28a99fa52894995e9790d1c32e864736f6c63430008090033",
  "linkReferences": {},
  "deployedLinkReferences": {}
}