{
  "_format": "hh-sol-artifact-1",
  "contractName": "TitanAchievements",
  "sourceName": "contracts/TitanAchievements.sol",
  "abi": [
    {
      "inputs": [],
      "stateMutability": "nonpayable",
      "type": "constructor"
    },
    {
      "inputs": [
        {
          "internalType": "address",
          "name": "_address",
          "type": "address"
        }
      ],
      "name": "AddressAlreadyClaimed",
      "type": "error"
    },
    {
      "inputs": [
        {
          "internalType": "string",
          "name": "_salt",
          "type": "string"
        },
        {
          "internalType": "bytes",
          "name": "_signature",
          "type": "bytes"
        },
        {
          "internalType": "uint256",
          "name": "_tokenId",
          "type": "uint256"
        },
        {
          "internalType": "address",
          "name": "_caller",
          "type": "address"
        }
      ],
      "name": "InvalidSignature",
      "type": "error"
    },
    {
      "inputs": [
        {
          "internalType": "address",
          "name": "_caller",
          "type": "address"
        }
      ],
      "name": "PermissionDeniedCallerIsNotASigner",
      "type": "error"
    },
    {
      "inputs": [
        {
          "internalType": "address",
          "name": "_caller",
          "type": "address"
        }
      ],
      "name": "PermissionDeniedCallerIsNotATransferrer",
      "type": "error"
    },
    {
      "inputs": [
        {
          "internalType": "address",
          "name": "_caller",
          "type": "address"
        }
      ],
      "name": "PermissionDeniedCallerIsNotAnAdmin",
      "type": "error"
    },
    {
      "inputs": [
        {
          "internalType": "uint256",
          "name": "_tokenId",
          "type": "uint256"
        }
      ],
      "name": "TokenIDDoesNotExist",
      "type": "error"
    },
    {
      "anonymous": false,
      "inputs": [
        {
          "indexed": true,
          "internalType": "address",
          "name": "account",
          "type": "address"
        },
        {
          "indexed": true,
          "internalType": "address",
          "name": "operator",
          "type": "address"
        },
        {
          "indexed": false,
          "internalType": "bool",
          "name": "approved",
          "type": "bool"
        }
      ],
      "name": "ApprovalForAll",
      "type": "event"
    },
    {
      "anonymous": false,
      "inputs": [
        {
          "indexed": true,
          "internalType": "address",
          "name": "previousOwner",
          "type": "address"
        },
        {
          "indexed": true,
          "internalType": "address",
          "name": "newOwner",
          "type": "address"
        }
      ],
      "name": "OwnershipTransferred",
      "type": "event"
    },
    {
      "anonymous": false,
      "inputs": [
        {
          "indexed": true,
          "internalType": "bytes32",
          "name": "role",
          "type": "bytes32"
        },
        {
          "indexed": true,
          "internalType": "bytes32",
          "name": "previousAdminRole",
          "type": "bytes32"
        },
        {
          "indexed": true,
          "internalType": "bytes32",
          "name": "newAdminRole",
          "type": "bytes32"
        }
      ],
      "name": "RoleAdminChanged",
      "type": "event"
    },
    {
      "anonymous": false,
      "inputs": [
        {
          "indexed": true,
          "internalType": "bytes32",
          "name": "role",
          "type": "bytes32"
        },
        {
          "indexed": true,
          "internalType": "address",
          "name": "account",
          "type": "address"
        },
        {
          "indexed": true,
          "internalType": "address",
          "name": "sender",
          "type": "address"
        }
      ],
      "name": "RoleGranted",
      "type": "event"
    },
    {
      "anonymous": false,
      "inputs": [
        {
          "indexed": true,
          "internalType": "bytes32",
          "name": "role",
          "type": "bytes32"
        },
        {
          "indexed": true,
          "internalType": "address",
          "name": "account",
          "type": "address"
        },
        {
          "indexed": true,
          "internalType": "address",
          "name": "sender",
          "type": "address"
        }
      ],
      "name": "RoleRevoked",
      "type": "event"
    },
    {
      "anonymous": false,
      "inputs": [
        {
          "indexed": false,
          "internalType": "address",
          "name": "newSigner",
          "type": "address"
        }
      ],
      "name": "SignerUpdated",
      "type": "event"
    },
    {
      "anonymous": false,
      "inputs": [
        {
          "indexed": true,
          "internalType": "address",
          "name": "operator",
          "type": "address"
        },
        {
          "indexed": true,
          "internalType": "address",
          "name": "from",
          "type": "address"
        },
        {
          "indexed": true,
          "internalType": "address",
          "name": "to",
          "type": "address"
        },
        {
          "indexed": false,
          "internalType": "uint256[]",
          "name": "ids",
          "type": "uint256[]"
        },
        {
          "indexed": false,
          "internalType": "uint256[]",
          "name": "values",
          "type": "uint256[]"
        }
      ],
      "name": "TransferBatch",
      "type": "event"
    },
    {
      "anonymous": false,
      "inputs": [
        {
          "indexed": true,
          "internalType": "address",
          "name": "operator",
          "type": "address"
        },
        {
          "indexed": true,
          "internalType": "address",
          "name": "from",
          "type": "address"
        },
        {
          "indexed": true,
          "internalType": "address",
          "name": "to",
          "type": "address"
        },
        {
          "indexed": false,
          "internalType": "uint256",
          "name": "id",
          "type": "uint256"
        },
        {
          "indexed": false,
          "internalType": "uint256",
          "name": "value",
          "type": "uint256"
        }
      ],
      "name": "TransferSingle",
      "type": "event"
    },
    {
      "anonymous": false,
      "inputs": [
        {
          "indexed": false,
          "internalType": "string",
          "name": "value",
          "type": "string"
        },
        {
          "indexed": true,
          "internalType": "uint256",
          "name": "id",
          "type": "uint256"
        }
      ],
      "name": "URI",
      "type": "event"
    },
    {
      "anonymous": false,
      "inputs": [
        {
          "indexed": false,
          "internalType": "uint256",
          "name": "tokenID",
          "type": "uint256"
        },
        {
          "indexed": false,
          "internalType": "address",
          "name": "minterAddress",
          "type": "address"
        }
      ],
      "name": "tokenMinted",
      "type": "event"
    },
    {
      "inputs": [],
      "name": "DEFAULT_ADMIN_ROLE",
      "outputs": [
        {
          "internalType": "bytes32",
          "name": "",
          "type": "bytes32"
        }
      ],
      "stateMutability": "view",
      "type": "function"
    },
    {
      "inputs": [],
      "name": "SIGNER_ROLE",
      "outputs": [
        {
          "internalType": "bytes32",
          "name": "",
          "type": "bytes32"
        }
      ],
      "stateMutability": "view",
      "type": "function"
    },
    {
      "inputs": [],
      "name": "TRANSFER_ROLE",
      "outputs": [
        {
          "internalType": "bytes32",
          "name": "",
          "type": "bytes32"
        }
      ],
      "stateMutability": "view",
      "type": "function"
    },
    {
      "inputs": [
        {
          "internalType": "address",
          "name": "account",
          "type": "address"
        },
        {
          "internalType": "uint256",
          "name": "id",
          "type": "uint256"
        }
      ],
      "name": "balanceOf",
      "outputs": [
        {
          "internalType": "uint256",
          "name": "",
          "type": "uint256"
        }
      ],
      "stateMutability": "view",
      "type": "function"
    },
    {
      "inputs": [
        {
          "internalType": "address[]",
          "name": "accounts",
          "type": "address[]"
        },
        {
          "internalType": "uint256[]",
          "name": "ids",
          "type": "uint256[]"
        }
      ],
      "name": "balanceOfBatch",
      "outputs": [
        {
          "internalType": "uint256[]",
          "name": "",
          "type": "uint256[]"
        }
      ],
      "stateMutability": "view",
      "type": "function"
    },
    {
      "inputs": [
        {
          "internalType": "string",
          "name": "_salt",
          "type": "string"
        },
        {
          "internalType": "bytes",
          "name": "_signature",
          "type": "bytes"
        },
        {
          "internalType": "uint256",
          "name": "_tokenId",
          "type": "uint256"
        }
      ],
      "name": "claim",
      "outputs": [],
      "stateMutability": "nonpayable",
      "type": "function"
    },
    {
      "inputs": [
        {
          "internalType": "address",
          "name": "",
          "type": "address"
        },
        {
          "internalType": "uint256",
          "name": "",
          "type": "uint256"
        }
      ],
      "name": "claimedNFT",
      "outputs": [
        {
          "internalType": "bool",
          "name": "",
          "type": "bool"
        }
      ],
      "stateMutability": "view",
      "type": "function"
    },
    {
      "inputs": [
        {
          "internalType": "bytes32",
          "name": "role",
          "type": "bytes32"
        }
      ],
      "name": "getRoleAdmin",
      "outputs": [
        {
          "internalType": "bytes32",
          "name": "",
          "type": "bytes32"
        }
      ],
      "stateMutability": "view",
      "type": "function"
    },
    {
      "inputs": [
        {
          "internalType": "bytes32",
          "name": "role",
          "type": "bytes32"
        },
        {
          "internalType": "uint256",
          "name": "index",
          "type": "uint256"
        }
      ],
      "name": "getRoleMember",
      "outputs": [
        {
          "internalType": "address",
          "name": "",
          "type": "address"
        }
      ],
      "stateMutability": "view",
      "type": "function"
    },
    {
      "inputs": [
        {
          "internalType": "bytes32",
          "name": "role",
          "type": "bytes32"
        }
      ],
      "name": "getRoleMemberCount",
      "outputs": [
        {
          "internalType": "uint256",
          "name": "",
          "type": "uint256"
        }
      ],
      "stateMutability": "view",
      "type": "function"
    },
    {
      "inputs": [
        {
          "internalType": "bytes32",
          "name": "role",
          "type": "bytes32"
        },
        {
          "internalType": "address",
          "name": "account",
          "type": "address"
        }
      ],
      "name": "grantRole",
      "outputs": [],
      "stateMutability": "nonpayable",
      "type": "function"
    },
    {
      "inputs": [
        {
          "internalType": "bytes32",
          "name": "role",
          "type": "bytes32"
        },
        {
          "internalType": "address",
          "name": "account",
          "type": "address"
        }
      ],
      "name": "hasRole",
      "outputs": [
        {
          "internalType": "bool",
          "name": "",
          "type": "bool"
        }
      ],
      "stateMutability": "view",
      "type": "function"
    },
    {
      "inputs": [
        {
          "internalType": "address",
          "name": "account",
          "type": "address"
        },
        {
          "internalType": "address",
          "name": "operator",
          "type": "address"
        }
      ],
      "name": "isApprovedForAll",
      "outputs": [
        {
          "internalType": "bool",
          "name": "",
          "type": "bool"
        }
      ],
      "stateMutability": "view",
      "type": "function"
    },
    {
      "inputs": [],
      "name": "name",
      "outputs": [
        {
          "internalType": "string",
          "name": "",
          "type": "string"
        }
      ],
      "stateMutability": "pure",
      "type": "function"
    },
    {
      "inputs": [],
      "name": "owner",
      "outputs": [
        {
          "internalType": "address",
          "name": "",
          "type": "address"
        }
      ],
      "stateMutability": "view",
      "type": "function"
    },
    {
      "inputs": [],
      "name": "renounceOwnership",
      "outputs": [],
      "stateMutability": "nonpayable",
      "type": "function"
    },
    {
      "inputs": [
        {
          "internalType": "bytes32",
          "name": "role",
          "type": "bytes32"
        },
        {
          "internalType": "address",
          "name": "account",
          "type": "address"
        }
      ],
      "name": "renounceRole",
      "outputs": [],
      "stateMutability": "nonpayable",
      "type": "function"
    },
    {
      "inputs": [
        {
          "internalType": "bytes32",
          "name": "role",
          "type": "bytes32"
        },
        {
          "internalType": "address",
          "name": "account",
          "type": "address"
        }
      ],
      "name": "revokeRole",
      "outputs": [],
      "stateMutability": "nonpayable",
      "type": "function"
    },
    {
      "inputs": [
        {
          "internalType": "address",
          "name": "from",
          "type": "address"
        },
        {
          "internalType": "address",
          "name": "to",
          "type": "address"
        },
        {
          "internalType": "uint256[]",
          "name": "ids",
          "type": "uint256[]"
        },
        {
          "internalType": "uint256[]",
          "name": "amounts",
          "type": "uint256[]"
        },
        {
          "internalType": "bytes",
          "name": "data",
          "type": "bytes"
        }
      ],
      "name": "safeBatchTransferFrom",
      "outputs": [],
      "stateMutability": "nonpayable",
      "type": "function"
    },
    {
      "inputs": [
        {
          "internalType": "address",
          "name": "from",
          "type": "address"
        },
        {
          "internalType": "address",
          "name": "to",
          "type": "address"
        },
        {
          "internalType": "uint256",
          "name": "id",
          "type": "uint256"
        },
        {
          "internalType": "uint256",
          "name": "amount",
          "type": "uint256"
        },
        {
          "internalType": "bytes",
          "name": "data",
          "type": "bytes"
        }
      ],
      "name": "safeTransferFrom",
      "outputs": [],
      "stateMutability": "nonpayable",
      "type": "function"
    },
    {
      "inputs": [
        {
          "internalType": "address",
          "name": "operator",
          "type": "address"
        },
        {
          "internalType": "bool",
          "name": "approved",
          "type": "bool"
        }
      ],
      "name": "setApprovalForAll",
      "outputs": [],
      "stateMutability": "nonpayable",
      "type": "function"
    },
    {
      "inputs": [
        {
          "internalType": "string",
          "name": "_newURI",
          "type": "string"
        }
      ],
      "name": "setBaseURI",
      "outputs": [],
      "stateMutability": "nonpayable",
      "type": "function"
    },
    {
      "inputs": [
        {
          "internalType": "address",
          "name": "_newSigner",
          "type": "address"
        }
      ],
      "name": "setSigner",
      "outputs": [],
      "stateMutability": "nonpayable",
      "type": "function"
    },
    {
      "inputs": [
        {
          "internalType": "uint256",
          "name": "tokenId",
          "type": "uint256"
        },
        {
          "internalType": "string",
          "name": "_newURI",
          "type": "string"
        }
      ],
      "name": "setTokenURI",
      "outputs": [],
      "stateMutability": "nonpayable",
      "type": "function"
    },
    {
      "inputs": [
        {
          "internalType": "bytes4",
          "name": "interfaceId",
          "type": "bytes4"
        }
      ],
      "name": "supportsInterface",
      "outputs": [
        {
          "internalType": "bool",
          "name": "",
          "type": "bool"
        }
      ],
      "stateMutability": "view",
      "type": "function"
    },
    {
      "inputs": [],
      "name": "symbol",
      "outputs": [
        {
          "internalType": "string",
          "name": "",
          "type": "string"
        }
      ],
      "stateMutability": "pure",
      "type": "function"
    },
    {
      "inputs": [
        {
          "internalType": "address",
          "name": "newOwner",
          "type": "address"
        }
      ],
      "name": "transferOwnership",
      "outputs": [],
      "stateMutability": "nonpayable",
      "type": "function"
    },
    {
      "inputs": [
        {
          "internalType": "uint256",
          "name": "tokenId",
          "type": "uint256"
        }
      ],
      "name": "uri",
      "outputs": [
        {
          "internalType": "string",
          "name": "",
          "type": "string"
        }
      ],
      "stateMutability": "view",
      "type": "function"
    },
    {
      "inputs": [
        {
          "internalType": "string",
          "name": "_salt",
          "type": "string"
        },
        {
          "internalType": "bytes",
          "name": "_token",
          "type": "bytes"
        },
        {
          "internalType": "address",
          "name": "_address",
          "type": "address"
        },
        {
          "internalType": "uint256",
          "name": "_tokenId",
          "type": "uint256"
        }
      ],
      "name": "verifyTokenForAddress",
      "outputs": [
        {
          "internalType": "bool",
          "name": "",
          "type": "bool"
        }
      ],
      "stateMutability": "view",
      "type": "function"
    },
    {
      "inputs": [
        {
          "internalType": "string",
          "name": "_salt",
          "type": "string"
        },
        {
          "internalType": "bytes",
          "name": "_token",
          "type": "bytes"
        },
        {
          "internalType": "address",
          "name": "_address",
          "type": "address"
        }
      ],
      "name": "verifyTokenForAddress",
      "outputs": [
        {
          "internalType": "bool",
          "name": "",
          "type": "bool"
        }
      ],
      "stateMutability": "view",
      "type": "function"
    }
  ],
  "bytecode": "0x60a06040819052600060808190526200001b9160059162000281565b503480156200002957600080fd5b506040805160208101909152600081526200004481620000bb565b506200005033620000d4565b6200005d60003362000126565b620000897fe2f4eaae4a9751e85a3e4a7b9587827a877f29914755229b07a7b2da98285f703362000126565b620000b57f8502233096d909befbda0999bb8ea2f3a6be3c138b9fbf003752a4c8bce86f6c3362000126565b62000364565b8051620000d090600490602084019062000281565b5050565b600780546001600160a01b038381166001600160a01b0319831681179093556040519116919082907f8be0079c531659141344cd1fd0a4f28419497f9722a3daafe3b4186f6b6457e090600090a35050565b620000d082826200014382826200016f60201b62000cb91760201c565b60008281526001602090815260409091206200016a91839062000d3d6200020f821b17901c565b505050565b6000828152602081815260408083206001600160a01b038516845290915290205460ff16620000d0576000828152602081815260408083206001600160a01b03851684529091529020805460ff19166001179055620001cb3390565b6001600160a01b0316816001600160a01b0316837f2f8788117e7eff1d82e926ec794901d17c78024a50270940304540a733656f0d60405160405180910390a45050565b600062000226836001600160a01b0384166200022f565b90505b92915050565b6000818152600183016020526040812054620002785750815460018181018455600084815260208082209093018490558454848252828601909352604090209190915562000229565b50600062000229565b8280546200028f9062000327565b90600052602060002090601f016020900481019282620002b35760008555620002fe565b82601f10620002ce57805160ff1916838001178555620002fe565b82800160010185558215620002fe579182015b82811115620002fe578251825591602001919060010190620002e1565b506200030c92915062000310565b5090565b5b808211156200030c576000815560010162000311565b600181811c908216806200033c57607f821691505b602082108114156200035e57634e487b7160e01b600052602260045260246000fd5b50919050565b612ee380620003746000396000f3fe608060405234801561001057600080fd5b50600436106101d95760003560e01c8063715018a611610104578063a217fddf116100a2578063d547741f11610071578063d547741f14610487578063e985e9c51461049a578063f242432a146104d6578063f2fde38b146104e957600080fd5b8063a217fddf14610446578063a22cb4651461044e578063a34932db14610461578063ca15c8731461047457600080fd5b806391d14854116100de57806391d14854146103c057806395d89b41146103d35780639d16bb74146103f1578063a1ebf35d1461041f57600080fd5b8063715018a6146103805780638da5cb5b146103885780639010d07c146103ad57600080fd5b8063248a9ca31161017c5780634e1273f41161014b5780634e1273f41461032757806355f804b314610347578063614c972b1461035a5780636c19e7831461036d57600080fd5b8063248a9ca3146102cb5780632eb2c2d6146102ee5780632f2ff15d1461030157806336568abe1461031457600080fd5b80630e89341c116101b85780630e89341c14610269578063162094c41461027c5780631a9279ec14610291578063206b60f9146102a457600080fd5b8062fdd58e146101de57806301ffc9a71461020457806306fdde0314610227575b600080fd5b6101f16101ec366004612172565b6104fc565b6040519081526020015b60405180910390f35b6102176102123660046121b2565b610597565b60405190151581526020016101fb565b60408051808201909152601881527f4b4f494f5320546974616e20416368696576656d656e7473000000000000000060208201525b6040516101fb919061222b565b61025c61027736600461223e565b6105a2565b61028f61028a366004612298565b610682565b005b61028f61029f3660046122e3565b6106fd565b6101f17f8502233096d909befbda0999bb8ea2f3a6be3c138b9fbf003752a4c8bce86f6c81565b6101f16102d936600461223e565b60009081526020819052604090206001015490565b61028f6102fc36600461249f565b6107f3565b61028f61030f366004612548565b61083f565b61028f610322366004612548565b610864565b61033a610335366004612574565b6108e2565b6040516101fb9190612679565b61028f61035536600461268c565b610a0b565b6102176103683660046126cd565b610a5f565b61028f61037b366004612755565b610ab7565b61028f610b0c565b6007546001600160a01b03165b6040516001600160a01b0390911681526020016101fb565b6103956103bb366004612770565b610b20565b6102176103ce366004612548565b610b38565b604080518082019091526002815261544160f01b602082015261025c565b6102176103ff366004612172565b600960209081526000928352604080842090915290825290205460ff1681565b6101f17fe2f4eaae4a9751e85a3e4a7b9587827a877f29914755229b07a7b2da98285f7081565b6101f1600081565b61028f61045c366004612792565b610b61565b61021761046f3660046127ce565b610b6c565b6101f161048236600461223e565b610bc2565b61028f610495366004612548565b610bd9565b6102176104a836600461284e565b6001600160a01b03918216600090815260036020908152604080832093909416825291909152205460ff1690565b61028f6104e4366004612878565b610bfe565b61028f6104f7366004612755565b610c43565b60006001600160a01b03831661056c5760405162461bcd60e51b815260206004820152602a60248201527f455243313135353a2061646472657373207a65726f206973206e6f742061207660448201526930b634b21037bbb732b960b11b60648201526084015b60405180910390fd5b5060008181526002602090815260408083206001600160a01b03861684529091529020545b92915050565b600061059182610d52565b6000818152600660205260408120805460609291906105c0906128dc565b80601f01602080910402602001604051908101604052809291908181526020018280546105ec906128dc565b80156106395780601f1061060e57610100808354040283529160200191610639565b820191906000526020600020905b81548152906001019060200180831161061c57829003601f168201915b5050505050905060008151116106575761065283610d92565b61067b565b60058160405160200161066b929190612933565b6040516020818303038152906040525b9392505050565b61068d600033610b38565b6106b857335b604051637baec9b560e01b81526001600160a01b039091166004820152602401610563565b6106f88383838080601f016020809104026020016040519081016040528093929190818152602001838380828437600092019190915250610e2692505050565b505050565b33600090815260096020908152604080832084845290915290205460ff161561073b5760405163096238d760e31b8152336004820152602401610563565b610749858585853386610a5f565b6107725784848484843360405163409295d760e11b815260040161056396959493929190612a03565b61078e3382600160405180602001604052806000815250610e8a565b336000818152600960209081526040808320858452825291829020805460ff1916600117905581518481529081019290925280517f55d785d3e2a7effd275e725eb0fd1a1457366d1d3709f9bb61cd2d83913fdb839281900390910190a15050505050565b6001600160a01b03851633148061080f575061080f85336104a8565b61082b5760405162461bcd60e51b815260040161056390612a4e565b6108388585858585610faf565b5050505050565b60008281526020819052604090206001015461085a8161119d565b6106f883836111a7565b6001600160a01b03811633146108d45760405162461bcd60e51b815260206004820152602f60248201527f416363657373436f6e74726f6c3a2063616e206f6e6c792072656e6f756e636560448201526e103937b632b9903337b91039b2b63360891b6064820152608401610563565b6108de82826111c9565b5050565b606081518351146109475760405162461bcd60e51b815260206004820152602960248201527f455243313135353a206163636f756e747320616e6420696473206c656e677468604482015268040dad2e6dac2e8c6d60bb1b6064820152608401610563565b600083516001600160401b0381111561096257610962612356565b60405190808252806020026020018201604052801561098b578160200160208202803683370190505b50905060005b8451811015610a03576109d68582815181106109af576109af612a9d565b60200260200101518583815181106109c9576109c9612a9d565b60200260200101516104fc565b8282815181106109e8576109e8612a9d565b60209081029190910101526109fc81612ac9565b9050610991565b509392505050565b610a16600033610b38565b610a205733610693565b6108de82828080601f0160208091040260200160405190810160405280939291908181526020018383808284376000920191909152506111eb92505050565b6000610aac610a70888885876111fe565b86868080601f01602080910402602001604051908101604052809392919081815260200183838082843760009201919091525061123992505050565b979650505050505050565b610ae17fe2f4eaae4a9751e85a3e4a7b9587827a877f29914755229b07a7b2da98285f7033610b38565b610b0057604051636de9f12160e01b8152336004820152602401610563565b610b0981611263565b50565b610b146112b7565b610b1e6000611311565b565b600082815260016020526040812061067b9083611363565b6000918252602082815260408084206001600160a01b0393909316845291905290205460ff1690565b6108de33838361136f565b6000610bb8610b7c878785611450565b85858080601f01602080910402602001604051908101604052809392919081815260200183838082843760009201919091525061123992505050565b9695505050505050565b600081815260016020526040812061059190611488565b600082815260208190526040902060010154610bf48161119d565b6106f883836111c9565b6001600160a01b038516331480610c1a5750610c1a85336104a8565b610c365760405162461bcd60e51b815260040161056390612a4e565b6108388585858585611492565b610c4b6112b7565b6001600160a01b038116610cb05760405162461bcd60e51b815260206004820152602660248201527f4f776e61626c653a206e6577206f776e657220697320746865207a65726f206160448201526564647265737360d01b6064820152608401610563565b610b0981611311565b610cc38282610b38565b6108de576000828152602081815260408083206001600160a01b03851684529091529020805460ff19166001179055610cf93390565b6001600160a01b0316816001600160a01b0316837f2f8788117e7eff1d82e926ec794901d17c78024a50270940304540a733656f0d60405160405180910390a45050565b600061067b836001600160a01b0384166115ce565b60006001600160e01b03198216636cdb3d1360e11b1480610d8357506001600160e01b031982166303a24d0760e21b145b8061059157506105918261161d565b606060048054610da1906128dc565b80601f0160208091040260200160405190810160405280929190818152602001828054610dcd906128dc565b8015610e1a5780601f10610def57610100808354040283529160200191610e1a565b820191906000526020600020905b815481529060010190602001808311610dfd57829003601f168201915b50505050509050919050565b60008281526006602090815260409091208251610e45928401906120bd565b50817f6bb7ff708619ba0610cba295a58592e0451dee2622938c8755667688daf3529b610e71846105a2565b604051610e7e919061222b565b60405180910390a25050565b6001600160a01b038416610eea5760405162461bcd60e51b815260206004820152602160248201527f455243313135353a206d696e7420746f20746865207a65726f206164647265736044820152607360f81b6064820152608401610563565b336000610ef685611642565b90506000610f0385611642565b9050610f148360008985858961168d565b60008681526002602090815260408083206001600160a01b038b16845290915281208054879290610f46908490612ae4565b909155505060408051878152602081018790526001600160a01b03808a1692600092918716917fc3d58168c5ae7397731d063d5bbf3d657854427343f4c083240f7aacaa2d0f62910160405180910390a4610fa6836000898989896116ed565b50505050505050565b81518351146110115760405162461bcd60e51b815260206004820152602860248201527f455243313135353a2069647320616e6420616d6f756e7473206c656e677468206044820152670dad2e6dac2e8c6d60c31b6064820152608401610563565b6001600160a01b0384166110375760405162461bcd60e51b815260040161056390612afc565b3361104681878787878761168d565b60005b845181101561112f57600085828151811061106657611066612a9d565b60200260200101519050600085838151811061108457611084612a9d565b60209081029190910181015160008481526002835260408082206001600160a01b038e1683529093529190912054909150818110156110d55760405162461bcd60e51b815260040161056390612b41565b60008381526002602090815260408083206001600160a01b038e8116855292528083208585039055908b16825281208054849290611114908490612ae4565b925050819055505050508061112890612ac9565b9050611049565b50846001600160a01b0316866001600160a01b0316826001600160a01b03167f4a39dc06d4c0dbc64b70af90fd698a233a518aa5d07e595d983b8c0526c8f7fb878760405161117f929190612b8b565b60405180910390a4611195818787878787611858565b505050505050565b610b098133611922565b6111b18282610cb9565b60008281526001602052604090206106f89082610d3d565b6111d38282611986565b60008281526001602052604090206106f890826119eb565b80516108de9060059060208401906120bd565b60008484308486604051602001611219959493929190612bb0565b604051602081830303815290604052805190602001209050949350505050565b6008546000906001600160a01b03166112528484611a00565b6001600160a01b0316149392505050565b600880546001600160a01b0319166001600160a01b0383169081179091556040519081527f5553331329228fbd4123164423717a4a7539f6dfa1c3279a923b98fd681a6c739060200160405180910390a150565b6007546001600160a01b03163314610b1e5760405162461bcd60e51b815260206004820181905260248201527f4f776e61626c653a2063616c6c6572206973206e6f7420746865206f776e65726044820152606401610563565b600780546001600160a01b038381166001600160a01b0319831681179093556040519116919082907f8be0079c531659141344cd1fd0a4f28419497f9722a3daafe3b4186f6b6457e090600090a35050565b600061067b8383611a63565b816001600160a01b0316836001600160a01b031614156113e35760405162461bcd60e51b815260206004820152602960248201527f455243313135353a2073657474696e6720617070726f76616c20737461747573604482015268103337b91039b2b63360b91b6064820152608401610563565b6001600160a01b03838116600081815260036020908152604080832094871680845294825291829020805460ff191686151590811790915591519182527f17307eab39ab6107e8899845ad3d59bd9653f200f220920489ca2b5937696c31910160405180910390a3505050565b6000838330846040516020016114699493929190612be8565b6040516020818303038152906040528051906020012090509392505050565b6000610591825490565b6001600160a01b0384166114b85760405162461bcd60e51b815260040161056390612afc565b3360006114c485611642565b905060006114d185611642565b90506114e183898985858961168d565b60008681526002602090815260408083206001600160a01b038c168452909152902054858110156115245760405162461bcd60e51b815260040161056390612b41565b60008781526002602090815260408083206001600160a01b038d8116855292528083208985039055908a16825281208054889290611563908490612ae4565b909155505060408051888152602081018890526001600160a01b03808b16928c821692918816917fc3d58168c5ae7397731d063d5bbf3d657854427343f4c083240f7aacaa2d0f62910160405180910390a46115c3848a8a8a8a8a6116ed565b505050505050505050565b600081815260018301602052604081205461161557508154600181810184556000848152602080822090930184905584548482528286019093526040902091909155610591565b506000610591565b60006001600160e01b03198216635a05180f60e01b1480610591575061059182611a8d565b6040805160018082528183019092526060916000919060208083019080368337019050509050828160008151811061167c5761167c612a9d565b602090810291909101015292915050565b6001600160a01b03851615806116c857506116c87f8502233096d909befbda0999bb8ea2f3a6be3c138b9fbf003752a4c8bce86f6c33610b38565b156116d257611195565b60405163972c74c760e01b8152336004820152602401610563565b6001600160a01b0384163b156111955760405163f23a6e6160e01b81526001600160a01b0385169063f23a6e61906117319089908990889088908890600401612c1d565b602060405180830381600087803b15801561174b57600080fd5b505af192505050801561177b575060408051601f3d908101601f1916820190925261177891810190612c57565b60015b61182857611787612c74565b806308c379a014156117c1575061179c612c90565b806117a757506117c3565b8060405162461bcd60e51b8152600401610563919061222b565b505b60405162461bcd60e51b815260206004820152603460248201527f455243313135353a207472616e7366657220746f206e6f6e20455243313135356044820152732932b1b2b4bb32b91034b6b83632b6b2b73a32b960611b6064820152608401610563565b6001600160e01b0319811663f23a6e6160e01b14610fa65760405162461bcd60e51b815260040161056390612d19565b6001600160a01b0384163b156111955760405163bc197c8160e01b81526001600160a01b0385169063bc197c819061189c9089908990889088908890600401612d61565b602060405180830381600087803b1580156118b657600080fd5b505af19250505080156118e6575060408051601f3d908101601f191682019092526118e391810190612c57565b60015b6118f257611787612c74565b6001600160e01b0319811663bc197c8160e01b14610fa65760405162461bcd60e51b815260040161056390612d19565b61192c8282610b38565b6108de57611944816001600160a01b03166014611ac2565b61194f836020611ac2565b604051602001611960929190612dbf565b60408051601f198184030181529082905262461bcd60e51b82526105639160040161222b565b6119908282610b38565b156108de576000828152602081815260408083206001600160a01b0385168085529252808320805460ff1916905551339285917ff6391f5c32d9c69d2a47ea670b442974b53935d1edc7fd64eb21e047a839171b9190a45050565b600061067b836001600160a01b038416611c5d565b600061067b82611a5d856040517f19457468657265756d205369676e6564204d6573736167653a0a3332000000006020820152603c8101829052600090605c01604051602081830303815290604052805190602001209050919050565b90611d50565b6000826000018281548110611a7a57611a7a612a9d565b9060005260206000200154905092915050565b60006001600160e01b03198216637965db0b60e01b148061059157506301ffc9a760e01b6001600160e01b0319831614610591565b60606000611ad1836002612e34565b611adc906002612ae4565b6001600160401b03811115611af357611af3612356565b6040519080825280601f01601f191660200182016040528015611b1d576020820181803683370190505b509050600360fc1b81600081518110611b3857611b38612a9d565b60200101906001600160f81b031916908160001a905350600f60fb1b81600181518110611b6757611b67612a9d565b60200101906001600160f81b031916908160001a9053506000611b8b846002612e34565b611b96906001612ae4565b90505b6001811115611c0e576f181899199a1a9b1b9c1cb0b131b232b360811b85600f1660108110611bca57611bca612a9d565b1a60f81b828281518110611be057611be0612a9d565b60200101906001600160f81b031916908160001a90535060049490941c93611c0781612e53565b9050611b99565b50831561067b5760405162461bcd60e51b815260206004820181905260248201527f537472696e67733a20686578206c656e67746820696e73756666696369656e746044820152606401610563565b60008181526001830160205260408120548015611d46576000611c81600183612e6a565b8554909150600090611c9590600190612e6a565b9050818114611cfa576000866000018281548110611cb557611cb5612a9d565b9060005260206000200154905080876000018481548110611cd857611cd8612a9d565b6000918252602080832090910192909255918252600188019052604090208390555b8554869080611d0b57611d0b612e81565b600190038181906000526020600020016000905590558560010160008681526020019081526020016000206000905560019350505050610591565b6000915050610591565b6000806000611d5f8585611d6c565b91509150610a0381611ddc565b600080825160411415611da35760208301516040840151606085015160001a611d9787828585611f97565b94509450505050611dd5565b825160401415611dcd5760208301516040840151611dc2868383612084565b935093505050611dd5565b506000905060025b9250929050565b6000816004811115611df057611df0612e97565b1415611df95750565b6001816004811115611e0d57611e0d612e97565b1415611e5b5760405162461bcd60e51b815260206004820152601860248201527f45434453413a20696e76616c6964207369676e617475726500000000000000006044820152606401610563565b6002816004811115611e6f57611e6f612e97565b1415611ebd5760405162461bcd60e51b815260206004820152601f60248201527f45434453413a20696e76616c6964207369676e6174757265206c656e677468006044820152606401610563565b6003816004811115611ed157611ed1612e97565b1415611f2a5760405162461bcd60e51b815260206004820152602260248201527f45434453413a20696e76616c6964207369676e6174757265202773272076616c604482015261756560f01b6064820152608401610563565b6004816004811115611f3e57611f3e612e97565b1415610b095760405162461bcd60e51b815260206004820152602260248201527f45434453413a20696e76616c6964207369676e6174757265202776272076616c604482015261756560f01b6064820152608401610563565b6000807f7fffffffffffffffffffffffffffffff5d576e7357a4501ddfe92f46681b20a0831115611fce575060009050600361207b565b8460ff16601b14158015611fe657508460ff16601c14155b15611ff7575060009050600461207b565b6040805160008082526020820180845289905260ff881692820192909252606081018690526080810185905260019060a0016020604051602081039080840390855afa15801561204b573d6000803e3d6000fd5b5050604051601f1901519150506001600160a01b0381166120745760006001925092505061207b565b9150600090505b94509492505050565b6000806001600160ff1b038316816120a160ff86901c601b612ae4565b90506120af87828885611f97565b935093505050935093915050565b8280546120c9906128dc565b90600052602060002090601f0160209004810192826120eb5760008555612131565b82601f1061210457805160ff1916838001178555612131565b82800160010185558215612131579182015b82811115612131578251825591602001919060010190612116565b5061213d929150612141565b5090565b5b8082111561213d5760008155600101612142565b80356001600160a01b038116811461216d57600080fd5b919050565b6000806040838503121561218557600080fd5b61218e83612156565b946020939093013593505050565b6001600160e01b031981168114610b0957600080fd5b6000602082840312156121c457600080fd5b813561067b8161219c565b60005b838110156121ea5781810151838201526020016121d2565b838111156121f9576000848401525b50505050565b600081518084526122178160208601602086016121cf565b601f01601f19169290920160200192915050565b60208152600061067b60208301846121ff565b60006020828403121561225057600080fd5b5035919050565b60008083601f84011261226957600080fd5b5081356001600160401b0381111561228057600080fd5b602083019150836020828501011115611dd557600080fd5b6000806000604084860312156122ad57600080fd5b8335925060208401356001600160401b038111156122ca57600080fd5b6122d686828701612257565b9497909650939450505050565b6000806000806000606086880312156122fb57600080fd5b85356001600160401b038082111561231257600080fd5b61231e89838a01612257565b9097509550602088013591508082111561233757600080fd5b5061234488828901612257565b96999598509660400135949350505050565b634e487b7160e01b600052604160045260246000fd5b601f8201601f191681016001600160401b038111828210171561239157612391612356565b6040525050565b60006001600160401b038211156123b1576123b1612356565b5060051b60200190565b600082601f8301126123cc57600080fd5b813560206123d982612398565b6040516123e6828261236c565b83815260059390931b850182019282810191508684111561240657600080fd5b8286015b84811015612421578035835291830191830161240a565b509695505050505050565b600082601f83011261243d57600080fd5b81356001600160401b0381111561245657612456612356565b60405161246d601f8301601f19166020018261236c565b81815284602083860101111561248257600080fd5b816020850160208301376000918101602001919091529392505050565b600080600080600060a086880312156124b757600080fd5b6124c086612156565b94506124ce60208701612156565b935060408601356001600160401b03808211156124ea57600080fd5b6124f689838a016123bb565b9450606088013591508082111561250c57600080fd5b61251889838a016123bb565b9350608088013591508082111561252e57600080fd5b5061253b8882890161242c565b9150509295509295909350565b6000806040838503121561255b57600080fd5b8235915061256b60208401612156565b90509250929050565b6000806040838503121561258757600080fd5b82356001600160401b038082111561259e57600080fd5b818501915085601f8301126125b257600080fd5b813560206125bf82612398565b6040516125cc828261236c565b83815260059390931b85018201928281019150898411156125ec57600080fd5b948201945b838610156126115761260286612156565b825294820194908201906125f1565b9650508601359250508082111561262757600080fd5b50612634858286016123bb565b9150509250929050565b600081518084526020808501945080840160005b8381101561266e57815187529582019590820190600101612652565b509495945050505050565b60208152600061067b602083018461263e565b6000806020838503121561269f57600080fd5b82356001600160401b038111156126b557600080fd5b6126c185828601612257565b90969095509350505050565b600080600080600080608087890312156126e657600080fd5b86356001600160401b03808211156126fd57600080fd5b6127098a838b01612257565b9098509650602089013591508082111561272257600080fd5b5061272f89828a01612257565b9095509350612742905060408801612156565b9150606087013590509295509295509295565b60006020828403121561276757600080fd5b61067b82612156565b6000806040838503121561278357600080fd5b50508035926020909101359150565b600080604083850312156127a557600080fd5b6127ae83612156565b9150602083013580151581146127c357600080fd5b809150509250929050565b6000806000806000606086880312156127e657600080fd5b85356001600160401b03808211156127fd57600080fd5b61280989838a01612257565b9097509550602088013591508082111561282257600080fd5b5061282f88828901612257565b9094509250612842905060408701612156565b90509295509295909350565b6000806040838503121561286157600080fd5b61286a83612156565b915061256b60208401612156565b600080600080600060a0868803121561289057600080fd5b61289986612156565b94506128a760208701612156565b9350604086013592506060860135915060808601356001600160401b038111156128d057600080fd5b61253b8882890161242c565b600181811c908216806128f057607f821691505b6020821081141561291157634e487b7160e01b600052602260045260246000fd5b50919050565b600081516129298185602086016121cf565b9290920192915050565b600080845481600182811c91508083168061294f57607f831692505b602080841082141561296f57634e487b7160e01b86526022600452602486fd5b8180156129835760018114612994576129c1565b60ff198616895284890196506129c1565b60008b81526020902060005b868110156129b95781548b8201529085019083016129a0565b505084890196505b5050505050506129d18185612917565b95945050505050565b81835281816020850137506000828201602090810191909152601f909101601f19169091010190565b608081526000612a1760808301888a6129da565b8281036020840152612a2a8187896129da565b604084019590955250506001600160a01b0391909116606090910152949350505050565b6020808252602f908201527f455243313135353a2063616c6c6572206973206e6f7420746f6b656e206f776e60408201526e195c881b9bdc88185c1c1c9bdd9959608a1b606082015260800190565b634e487b7160e01b600052603260045260246000fd5b634e487b7160e01b600052601160045260246000fd5b6000600019821415612add57612add612ab3565b5060010190565b60008219821115612af757612af7612ab3565b500190565b60208082526025908201527f455243313135353a207472616e7366657220746f20746865207a65726f206164604082015264647265737360d81b606082015260800190565b6020808252602a908201527f455243313135353a20696e73756666696369656e742062616c616e636520666f60408201526939103a3930b739b332b960b11b606082015260800190565b604081526000612b9e604083018561263e565b82810360208401526129d1818561263e565b608081526000612bc46080830187896129da565b6001600160a01b039586166020840152939094166040820152606001529392505050565b606081526000612bfc6060830186886129da565b6001600160a01b039485166020840152929093166040909101529392505050565b6001600160a01b03868116825285166020820152604081018490526060810183905260a060808201819052600090610aac908301846121ff565b600060208284031215612c6957600080fd5b815161067b8161219c565b600060033d1115612c8d5760046000803e5060005160e01c5b90565b600060443d1015612c9e5790565b6040516003193d81016004833e81513d6001600160401b038160248401118184111715612ccd57505050505090565b8285019150815181811115612ce55750505050505090565b843d8701016020828501011115612cff5750505050505090565b612d0e6020828601018761236c565b509095945050505050565b60208082526028908201527f455243313135353a204552433131353552656365697665722072656a656374656040820152676420746f6b656e7360c01b606082015260800190565b6001600160a01b0386811682528516602082015260a060408201819052600090612d8d9083018661263e565b8281036060840152612d9f818661263e565b90508281036080840152612db381856121ff565b98975050505050505050565b7f416363657373436f6e74726f6c3a206163636f756e7420000000000000000000815260008351612df78160178501602088016121cf565b7001034b99036b4b9b9b4b733903937b6329607d1b6017918401918201528351612e288160288401602088016121cf565b01602801949350505050565b6000816000190483118215151615612e4e57612e4e612ab3565b500290565b600081612e6257612e62612ab3565b506000190190565b600082821015612e7c57612e7c612ab3565b500390565b634e487b7160e01b600052603160045260246000fd5b634e487b7160e01b600052602160045260246000fdfea264697066735822122090754f8fa443f8ac944a880f4a59b133700e9120b01b77fb16cb2ebb9639a1b564736f6c63430008090033",
  "linkReferences": {},
  "deployedLinkReferences": {}
}